{
  "_format": "hh-sol-artifact-1",
  "contractName": "VRFCoordinatorMock",
  "sourceName": "contracts/VRFCoordinatorMock.sol",
  "abi": [
    {
      "inputs": [
        {
          "internalType": "address",
          "name": "linkAddress",
          "type": "address"
        }
      ],
      "stateMutability": "nonpayable",
      "type": "constructor"
    },
    {
      "anonymous": false,
      "inputs": [
        {
          "indexed": true,
          "internalType": "address",
          "name": "sender",
          "type": "address"
        },
        {
          "indexed": true,
          "internalType": "bytes32",
          "name": "keyHash",
          "type": "bytes32"
        },
        {
          "indexed": true,
          "internalType": "uint256",
          "name": "seed",
          "type": "uint256"
        },
        {
          "indexed": false,
          "internalType": "uint256",
          "name": "fee",
          "type": "uint256"
        },
        {
          "indexed": false,
          "internalType": "bytes32",
          "name": "requestId",
          "type": "bytes32"
        }
      ],
      "name": "RandomnessRequest",
      "type": "event"
    },
    {
      "inputs": [],
      "name": "LINK",
      "outputs": [
        {
          "internalType": "contract LinkTokenInterface",
          "name": "",
          "type": "address"
        }
      ],
      "stateMutability": "view",
      "type": "function"
    },
    {
      "inputs": [
        {
          "internalType": "bytes32",
          "name": "requestId",
          "type": "bytes32"
        },
        {
          "internalType": "uint256",
          "name": "randomness",
          "type": "uint256"
        },
        {
          "internalType": "address",
          "name": "consumerContract",
          "type": "address"
        }
      ],
      "name": "callBackWithRandomness",
      "outputs": [],
      "stateMutability": "nonpayable",
      "type": "function"
    },
    {
      "inputs": [
        {
          "internalType": "uint256",
          "name": "randomness",
          "type": "uint256"
        }
      ],
      "name": "fulfillRequest",
      "outputs": [],
      "stateMutability": "nonpayable",
      "type": "function"
    },
    {
      "inputs": [],
      "name": "getStackLength",
      "outputs": [
        {
          "internalType": "uint256",
          "name": "",
          "type": "uint256"
        }
      ],
      "stateMutability": "view",
      "type": "function"
    },
    {
      "inputs": [
        {
          "internalType": "address",
          "name": "sender",
          "type": "address"
        },
        {
          "internalType": "uint256",
          "name": "fee",
          "type": "uint256"
        },
        {
          "internalType": "bytes",
          "name": "_data",
          "type": "bytes"
        }
      ],
      "name": "onTokenTransfer",
      "outputs": [],
      "stateMutability": "nonpayable",
      "type": "function"
    },
    {
      "inputs": [
        {
          "internalType": "uint256",
          "name": "_fee",
          "type": "uint256"
        },
        {
          "internalType": "bytes32",
          "name": "keyHash",
          "type": "bytes32"
        }
      ],
      "name": "registerProvingKey",
      "outputs": [],
      "stateMutability": "nonpayable",
      "type": "function"
    },
    {
      "inputs": [
        {
          "internalType": "bytes32",
          "name": "",
          "type": "bytes32"
        }
      ],
      "name": "serviceAgreements",
      "outputs": [
        {
          "internalType": "uint96",
          "name": "",
          "type": "uint96"
        }
      ],
      "stateMutability": "view",
      "type": "function"
    }
  ],
  "bytecode": "0x608060405234801561001057600080fd5b50604051610c0d380380610c0d83398101604081905261002f91610054565b600080546001600160a01b0319166001600160a01b0392909216919091179055610082565b600060208284031215610065578081fd5b81516001600160a01b038116811461007b578182fd5b9392505050565b610b7c806100916000396000f3fe608060405234801561001057600080fd5b506004361061007d5760003560e01c8063920e98e21161005b578063920e98e2146100d55780639a91eb0d146100ea578063a4c0ed36146100fd578063cf55fe97146101105761007d565b80631b6b6d231461008257806375d35070146100a057806390bfaba1146100c0575b600080fd5b61008a610123565b604051610097919061093d565b60405180910390f35b6100b36100ae366004610835565b61013f565b6040516100979190610aa0565b6100d36100ce3660046108a4565b61015f565b005b6100dd6101f9565b6040516100979190610a97565b6100d36100f8366004610835565b610210565b6100d361010b36600461075a565b6102f7565b6100d361011e366004610870565b610553565b60005473ffffffffffffffffffffffffffffffffffffffff1681565b6003602052600090815260409020546bffffffffffffffffffffffff1681565b6b033b2e3c9fd0803ce80000008211156101ae576040517f08c379a00000000000000000000000000000000000000000000000000000000081526004016101a59061095e565b60405180910390fd5b600090815260036020526040902080547fffffffffffffffffffffffffffffffffffffffff000000000000000000000000166bffffffffffffffffffffffff92909216919091179055565b60025460015460009161020b91610ad1565b905090565b6002546001541161024d576040517f08c379a00000000000000000000000000000000000000000000000000000000081526004016101a590610a29565b600060016002548154811061028b577f4e487b7100000000000000000000000000000000000000000000000000000000600052603260045260246000fd5b600091825260209182902060408051808201909152600290920201805480835260019091015473ffffffffffffffffffffffffffffffffffffffff169282018390529092506102db918490610553565b6001600260008282546102ee9190610ab9565b90915550505050565b60005473ffffffffffffffffffffffffffffffffffffffff163314610348576040517f08c379a00000000000000000000000000000000000000000000000000000000081526004016101a590610a60565b6000808280602001905181019061035f919061084d565b60008281526003602052604090205491935091506bffffffffffffffffffffffff168410156103ba576040517f08c379a00000000000000000000000000000000000000000000000000000000081526004016101a5906109bb565b73ffffffffffffffffffffffffffffffffffffffff851660009081526004602090815260408083208584529091528120546103f890849088906106a3565b73ffffffffffffffffffffffffffffffffffffffff871660009081526004602090815260408083208784529091528120805492935060019290919061043e908490610ab9565b909155506000905061045084836106fe565b60408051808201825282815273ffffffffffffffffffffffffffffffffffffffff8a81166020830181815260018054808201825560009190915284517fb10e2d527612073b26eecdfd717e6a320cf44b4afac2b0732d9fcbe2b7fa0cf660029092029182015590517fb10e2d527612073b26eecdfd717e6a320cf44b4afac2b0732d9fcbe2b7fa0cf790910180547fffffffffffffffffffffffff0000000000000000000000000000000000000000169190931617909155915192935091859187917f42fbf6a38bf795237cd5685315a827e12a45212553f93fdccfc37a2b711ac04090610541908c9088906108c5565b60405180910390a45050505050505050565b6000806394985ddd60e01b85856040516024016105719291906108c5565b604080517fffffffffffffffffffffffffffffffffffffffffffffffffffffffffffffffe08184030181529190526020810180517bffffffffffffffffffffffffffffffffffffffffffffffffffffffff167fffffffff00000000000000000000000000000000000000000000000000000000909316929092179091529050620324b0805a101561062e576040517f08c379a00000000000000000000000000000000000000000000000000000000081526004016101a5906109f2565b60008473ffffffffffffffffffffffffffffffffffffffff168360405161065591906108d3565b6000604051808303816000865af19150503d8060008114610692576040519150601f19603f3d011682016040523d82523d6000602084013e610697565b606091505b50505050505050505050565b60405160009081906106bf90869083908790879060200161090c565b604080517fffffffffffffffffffffffffffffffffffffffffffffffffffffffffffffffe0818403018152919052805160209091012095945050505050565b600082826040516020016107139291906108c5565b60405160208183030381529060405280519060200120905092915050565b803573ffffffffffffffffffffffffffffffffffffffff8116811461075557600080fd5b919050565b60008060006060848603121561076e578283fd5b61077784610731565b92506020808501359250604085013567ffffffffffffffff8082111561079b578384fd5b818701915087601f8301126107ae578384fd5b8135818111156107c0576107c0610b17565b604051847fffffffffffffffffffffffffffffffffffffffffffffffffffffffffffffffe0601f840116820101818110848211171561080157610801610b17565b60405281815283820185018a1015610817578586fd5b81858501868301378585838301015280955050505050509250925092565b600060208284031215610846578081fd5b5035919050565b6000806040838503121561085f578182fd5b505080516020909101519092909150565b600080600060608486031215610884578283fd5b833592506020840135915061089b60408501610731565b90509250925092565b600080604083850312156108b6578182fd5b50508035926020909101359150565b918252602082015260400190565b60008251815b818110156108f357602081860181015185830152016108d9565b818111156109015782828501525b509190910192915050565b938452602084019290925273ffffffffffffffffffffffffffffffffffffffff166040830152606082015260800190565b73ffffffffffffffffffffffffffffffffffffffff91909116815260200190565b6020808252603c908201527f796f752063616e277420636861726765206d6f7265207468616e20616c6c207460408201527f6865204c494e4b20696e2074686520776f726c642c2067726565647900000000606082015260800190565b60208082526014908201527f42656c6f7720616772656564207061796d656e74000000000000000000000000604082015260600190565b6020808252601b908201527f6e6f7420656e6f7567682067617320666f7220636f6e73756d65720000000000604082015260600190565b60208082526016908201527f5265717565737420737461636b20697320656d70747900000000000000000000604082015260600190565b60208082526013908201527f4d75737420757365204c494e4b20746f6b656e00000000000000000000000000604082015260600190565b90815260200190565b6bffffffffffffffffffffffff91909116815260200190565b60008219821115610acc57610acc610ae8565b500190565b600082821015610ae357610ae3610ae8565b500390565b7f4e487b7100000000000000000000000000000000000000000000000000000000600052601160045260246000fd5b7f4e487b7100000000000000000000000000000000000000000000000000000000600052604160045260246000fdfea2646970667358221220bf78d92ba93f596bd02e404471d3a9c415d70d4a53419e6437da3678e9e2c31e64736f6c63430008000033",
  "linkReferences": {},
  "deployedLinkReferences": {}
}