{
  "_format": "hh-sol-artifact-1",
  "contractName": "CompoundOracleMock",
  "sourceName": "contracts/CompoundOracleMock.sol",
  "abi": [
    {
      "inputs": [
        {
          "internalType": "contract CToken",
          "name": "cToken",
          "type": "address"
        }
      ],
      "name": "getUnderlyingPrice",
      "outputs": [
        {
          "internalType": "uint256",
          "name": "",
          "type": "uint256"
        }
      ],
      "stateMutability": "view",
      "type": "function"
    },
    {
      "inputs": [],
      "name": "isPriceOracle",
      "outputs": [
        {
          "internalType": "bool",
          "name": "",
          "type": "bool"
        }
      ],
      "stateMutability": "pure",
      "type": "function"
    },
    {
      "inputs": [
        {
          "internalType": "address",
          "name": "a",
          "type": "address"
        },
        {
          "internalType": "uint256",
          "name": "b",
          "type": "uint256"
        }
      ],
      "name": "updatePrice",
      "outputs": [],
      "stateMutability": "nonpayable",
      "type": "function"
    }
  ],
  "bytecode": "0x608060405234801561001057600080fd5b50610327806100206000396000f3fe608060405234801561001057600080fd5b50600436106100415760003560e01c8063457972de1461004657806366331bba14610062578063fc57d4df14610080575b600080fd5b610060600480360381019061005b91906101e6565b6100b0565b005b61006a6100f7565b6040516100779190610241565b60405180910390f35b61009a6004803603810190610095919061029a565b610100565b6040516100a791906102d6565b60405180910390f35b806000808473ffffffffffffffffffffffffffffffffffffffff1673ffffffffffffffffffffffffffffffffffffffff168152602001908152602001600020819055505050565b60006001905090565b6000808290506000808273ffffffffffffffffffffffffffffffffffffffff1673ffffffffffffffffffffffffffffffffffffffff16815260200190815260200160002054915050919050565b600080fd5b600073ffffffffffffffffffffffffffffffffffffffff82169050919050565b600061017d82610152565b9050919050565b61018d81610172565b811461019857600080fd5b50565b6000813590506101aa81610184565b92915050565b6000819050919050565b6101c3816101b0565b81146101ce57600080fd5b50565b6000813590506101e0816101ba565b92915050565b600080604083850312156101fd576101fc61014d565b5b600061020b8582860161019b565b925050602061021c858286016101d1565b9150509250929050565b60008115159050919050565b61023b81610226565b82525050565b60006020820190506102566000830184610232565b92915050565b600061026782610172565b9050919050565b6102778161025c565b811461028257600080fd5b50565b6000813590506102948161026e565b92915050565b6000602082840312156102b0576102af61014d565b5b60006102be84828501610285565b91505092915050565b6102d0816101b0565b82525050565b60006020820190506102eb60008301846102c7565b9291505056fea2646970667358221220d8ad2932797fc6d2fbd0e3d2a316415ec8642908515d4e83b931fce644fcadb264736f6c63430008110033",
  "linkReferences": {},
  "deployedLinkReferences": {}
}