{
  "_format": "hh-sol-artifact-1",
  "contractName": "ChainlinkPricefeedMock",
  "sourceName": "contracts/chainlink/pricefeeds/ChainlinkPricefeedMock.sol",
  "abi": [
    {
      "inputs": [
        {
          "internalType": "uint8",
          "name": "decimals_",
          "type": "uint8"
        },
        {
          "internalType": "string",
          "name": "description_",
          "type": "string"
        },
        {
          "internalType": "uint256",
          "name": "version_",
          "type": "uint256"
        },
        {
          "internalType": "int256",
          "name": "price_",
          "type": "int256"
        }
      ],
      "stateMutability": "nonpayable",
      "type": "constructor"
    },
    {
      "anonymous": false,
      "inputs": [
        {
          "indexed": true,
          "internalType": "int256",
          "name": "current",
          "type": "int256"
        },
        {
          "indexed": true,
          "internalType": "uint256",
          "name": "roundId",
          "type": "uint256"
        },
        {
          "indexed": false,
          "internalType": "uint256",
          "name": "updatedAt",
          "type": "uint256"
        }
      ],
      "name": "AnswerUpdated",
      "type": "event"
    },
    {
      "anonymous": false,
      "inputs": [
        {
          "indexed": true,
          "internalType": "uint256",
          "name": "roundId",
          "type": "uint256"
        },
        {
          "indexed": true,
          "internalType": "address",
          "name": "startedBy",
          "type": "address"
        },
        {
          "indexed": false,
          "internalType": "uint256",
          "name": "startedAt",
          "type": "uint256"
        }
      ],
      "name": "NewRound",
      "type": "event"
    },
    {
      "inputs": [],
      "name": "decimals",
      "outputs": [
        {
          "internalType": "uint8",
          "name": "",
          "type": "uint8"
        }
      ],
      "stateMutability": "view",
      "type": "function"
    },
    {
      "inputs": [],
      "name": "description",
      "outputs": [
        {
          "internalType": "string",
          "name": "",
          "type": "string"
        }
      ],
      "stateMutability": "view",
      "type": "function"
    },
    {
      "inputs": [
        {
          "internalType": "uint256",
          "name": "roundId",
          "type": "uint256"
        }
      ],
      "name": "getAnswer",
      "outputs": [
        {
          "internalType": "int256",
          "name": "",
          "type": "int256"
        }
      ],
      "stateMutability": "view",
      "type": "function"
    },
    {
      "inputs": [
        {
          "internalType": "uint80",
          "name": "_roundId",
          "type": "uint80"
        }
      ],
      "name": "getRoundData",
      "outputs": [
        {
          "internalType": "uint80",
          "name": "roundId",
          "type": "uint80"
        },
        {
          "internalType": "int256",
          "name": "answer",
          "type": "int256"
        },
        {
          "internalType": "uint256",
          "name": "startedAt",
          "type": "uint256"
        },
        {
          "internalType": "uint256",
          "name": "updatedAt",
          "type": "uint256"
        },
        {
          "internalType": "uint80",
          "name": "answeredInRound",
          "type": "uint80"
        }
      ],
      "stateMutability": "view",
      "type": "function"
    },
    {
      "inputs": [
        {
          "internalType": "uint256",
          "name": "roundId",
          "type": "uint256"
        }
      ],
      "name": "getTimestamp",
      "outputs": [
        {
          "internalType": "uint256",
          "name": "",
          "type": "uint256"
        }
      ],
      "stateMutability": "view",
      "type": "function"
    },
    {
      "inputs": [],
      "name": "latestAnswer",
      "outputs": [
        {
          "internalType": "int256",
          "name": "",
          "type": "int256"
        }
      ],
      "stateMutability": "view",
      "type": "function"
    },
    {
      "inputs": [],
      "name": "latestRound",
      "outputs": [
        {
          "internalType": "uint256",
          "name": "",
          "type": "uint256"
        }
      ],
      "stateMutability": "view",
      "type": "function"
    },
    {
      "inputs": [],
      "name": "latestRoundData",
      "outputs": [
        {
          "internalType": "uint80",
          "name": "roundId",
          "type": "uint80"
        },
        {
          "internalType": "int256",
          "name": "answer",
          "type": "int256"
        },
        {
          "internalType": "uint256",
          "name": "startedAt",
          "type": "uint256"
        },
        {
          "internalType": "uint256",
          "name": "updatedAt",
          "type": "uint256"
        },
        {
          "internalType": "uint80",
          "name": "answeredInRound",
          "type": "uint80"
        }
      ],
      "stateMutability": "view",
      "type": "function"
    },
    {
      "inputs": [],
      "name": "latestTimestamp",
      "outputs": [
        {
          "internalType": "uint256",
          "name": "",
          "type": "uint256"
        }
      ],
      "stateMutability": "view",
      "type": "function"
    },
    {
      "inputs": [
        {
          "internalType": "int256",
          "name": "answer_",
          "type": "int256"
        }
      ],
      "name": "updateOracle",
      "outputs": [],
      "stateMutability": "nonpayable",
      "type": "function"
    },
    {
      "inputs": [],
      "name": "version",
      "outputs": [
        {
          "internalType": "uint256",
          "name": "",
          "type": "uint256"
        }
      ],
      "stateMutability": "view",
      "type": "function"
    }
  ],
  "bytecode": "0x60806040523480156200001157600080fd5b50604051620016f9380380620016f98339818101604052810190620000379190620004fe565b336000806101000a81548173ffffffffffffffffffffffffffffffffffffffff021916908373ffffffffffffffffffffffffffffffffffffffff16021790555083600060146101000a81548160ff021916908360ff1602179055508260019081620000a39190620007d0565b5081600281905550620000bc81620000c660201b60201c565b5050505062000941565b6001600360008282829054906101000a900469ffffffffffffffffffff16620000f09190620008fc565b92506101000a81548169ffffffffffffffffffff021916908369ffffffffffffffffffff1602179055506200012462000270565b600360009054906101000a900469ffffffffffffffffffff16816000019069ffffffffffffffffffff16908169ffffffffffffffffffff1681525050818160200181815250504281604001818152505042816060018181525050600360009054906101000a900469ffffffffffffffffffff16816080019069ffffffffffffffffffff16908169ffffffffffffffffffff1681525050600481908060018154018082558091505060019003906000526020600020906005020160009091909190915060008201518160000160006101000a81548169ffffffffffffffffffff021916908369ffffffffffffffffffff16021790555060208201518160010155604082015181600201556060820151816003015560808201518160040160006101000a81548169ffffffffffffffffffff021916908369ffffffffffffffffffff16021790555050505050565b6040518060a00160405280600069ffffffffffffffffffff168152602001600081526020016000815260200160008152602001600069ffffffffffffffffffff1681525090565b6000604051905090565b600080fd5b600080fd5b600060ff82169050919050565b620002e381620002cb565b8114620002ef57600080fd5b50565b6000815190506200030381620002d8565b92915050565b600080fd5b600080fd5b6000601f19601f8301169050919050565b7f4e487b7100000000000000000000000000000000000000000000000000000000600052604160045260246000fd5b6200035e8262000313565b810181811067ffffffffffffffff8211171562000380576200037f62000324565b5b80604052505050565b600062000395620002b7565b9050620003a3828262000353565b919050565b600067ffffffffffffffff821115620003c657620003c562000324565b5b620003d18262000313565b9050602081019050919050565b60005b83811015620003fe578082015181840152602081019050620003e1565b60008484015250505050565b6000620004216200041b84620003a8565b62000389565b90508281526020810184848401111562000440576200043f6200030e565b5b6200044d848285620003de565b509392505050565b600082601f8301126200046d576200046c62000309565b5b81516200047f8482602086016200040a565b91505092915050565b6000819050919050565b6200049d8162000488565b8114620004a957600080fd5b50565b600081519050620004bd8162000492565b92915050565b6000819050919050565b620004d881620004c3565b8114620004e457600080fd5b50565b600081519050620004f881620004cd565b92915050565b600080600080608085870312156200051b576200051a620002c1565b5b60006200052b87828801620002f2565b945050602085015167ffffffffffffffff8111156200054f576200054e620002c6565b5b6200055d8782880162000455565b93505060406200057087828801620004ac565b92505060606200058387828801620004e7565b91505092959194509250565b600081519050919050565b7f4e487b7100000000000000000000000000000000000000000000000000000000600052602260045260246000fd5b60006002820490506001821680620005e257607f821691505b602082108103620005f857620005f76200059a565b5b50919050565b60008190508160005260206000209050919050565b60006020601f8301049050919050565b600082821b905092915050565b600060088302620006627fffffffffffffffffffffffffffffffffffffffffffffffffffffffffffffffff8262000623565b6200066e868362000623565b95508019841693508086168417925050509392505050565b6000819050919050565b6000620006b1620006ab620006a58462000488565b62000686565b62000488565b9050919050565b6000819050919050565b620006cd8362000690565b620006e5620006dc82620006b8565b84845462000630565b825550505050565b600090565b620006fc620006ed565b62000709818484620006c2565b505050565b5b81811015620007315762000725600082620006f2565b6001810190506200070f565b5050565b601f82111562000780576200074a81620005fe565b620007558462000613565b8101602085101562000765578190505b6200077d620007748562000613565b8301826200070e565b50505b505050565b600082821c905092915050565b6000620007a56000198460080262000785565b1980831691505092915050565b6000620007c0838362000792565b9150826002028217905092915050565b620007db826200058f565b67ffffffffffffffff811115620007f757620007f662000324565b5b620008038254620005c9565b6200081082828562000735565b600060209050601f83116001811462000848576000841562000833578287015190505b6200083f8582620007b2565b865550620008af565b601f1984166200085886620005fe565b60005b8281101562000882578489015182556001820191506020850194506020810190506200085b565b86831015620008a257848901516200089e601f89168262000792565b8355505b6001600288020188555050505b505050505050565b600069ffffffffffffffffffff82169050919050565b7f4e487b7100000000000000000000000000000000000000000000000000000000600052601160045260246000fd5b60006200090982620008b7565b91506200091683620008b7565b9250828201905069ffffffffffffffffffff8111156200093b576200093a620008cd565b5b92915050565b610da880620009516000396000f3fe608060405234801561001057600080fd5b50600436106100a95760003560e01c80638205bf6a116100715780638205bf6a146101445780639a6fc8f514610162578063b5ab58dc14610196578063b633620c146101c6578063e19acfcf146101f6578063feaf968c14610212576100a9565b8063313ce567146100ae57806350d25bcd146100cc57806354fd4d50146100ea578063668a0f02146101085780637284e41614610126575b600080fd5b6100b6610234565b6040516100c3919061086f565b60405180910390f35b6100d461024a565b6040516100e191906108a3565b60405180910390f35b6100f2610262565b6040516100ff91906108d7565b60405180910390f35b61011061026c565b60405161011d91906108d7565b60405180910390f35b61012e610290565b60405161013b9190610982565b60405180910390f35b61014c610322565b60405161015991906108d7565b60405180910390f35b61017c600480360381019061017791906109eb565b61033a565b60405161018d959493929190610a27565b60405180910390f35b6101b060048036038101906101ab9190610aa6565b610494565b6040516101bd91906108a3565b60405180910390f35b6101e060048036038101906101db9190610aa6565b6104af565b6040516101ed91906108d7565b60405180910390f35b610210600480360381019061020b9190610aff565b6104ca565b005b61021a610564565b60405161022b959493929190610a27565b60405180910390f35b60008060149054906101000a900460ff16905090565b600080610255610564565b5050509150508091505090565b6000600254905090565b600080610277610564565b5050505090508069ffffffffffffffffffff1691505090565b60606001805461029f90610b5b565b80601f01602080910402602001604051908101604052809291908181526020018280546102cb90610b5b565b80156103185780601f106102ed57610100808354040283529160200191610318565b820191906000526020600020905b8154815290600101906020018083116102fb57829003601f168201915b5050505050905090565b60008061032d610564565b5093505050508091505090565b6000806000806000808669ffffffffffffffffffff1611610390576040517f08c379a000000000000000000000000000000000000000000000000000000000815260040161038790610bd8565b60405180910390fd5b600060046001886103a19190610c27565b69ffffffffffffffffffff16815481106103be576103bd610c65565b5b90600052602060002090600502016040518060a00160405290816000820160009054906101000a900469ffffffffffffffffffff1669ffffffffffffffffffff1669ffffffffffffffffffff1681526020016001820154815260200160028201548152602001600382015481526020016004820160009054906101000a900469ffffffffffffffffffff1669ffffffffffffffffffff1669ffffffffffffffffffff1681525050905080600001518160200151826040015183606001518460800151955095509550955095505091939590929450565b6000806104a08361033a565b50505091505080915050919050565b6000806104bb8361033a565b50935050505080915050919050565b3373ffffffffffffffffffffffffffffffffffffffff1660008054906101000a900473ffffffffffffffffffffffffffffffffffffffff1673ffffffffffffffffffffffffffffffffffffffff1614610558576040517f08c379a000000000000000000000000000000000000000000000000000000000815260040161054f90610ce0565b60405180910390fd5b61056181610666565b50565b600080600080600080600460016004805490506105819190610d00565b8154811061059257610591610c65565b5b90600052602060002090600502016040518060a00160405290816000820160009054906101000a900469ffffffffffffffffffff1669ffffffffffffffffffff1669ffffffffffffffffffff1681526020016001820154815260200160028201548152602001600382015481526020016004820160009054906101000a900469ffffffffffffffffffff1669ffffffffffffffffffff1669ffffffffffffffffffff168152505090508060000151816020015182604001518360600151846080015195509550955095509550509091929394565b6001600360008282829054906101000a900469ffffffffffffffffffff1661068e9190610d34565b92506101000a81548169ffffffffffffffffffff021916908369ffffffffffffffffffff1602179055506106c061080c565b600360009054906101000a900469ffffffffffffffffffff16816000019069ffffffffffffffffffff16908169ffffffffffffffffffff1681525050818160200181815250504281604001818152505042816060018181525050600360009054906101000a900469ffffffffffffffffffff16816080019069ffffffffffffffffffff16908169ffffffffffffffffffff1681525050600481908060018154018082558091505060019003906000526020600020906005020160009091909190915060008201518160000160006101000a81548169ffffffffffffffffffff021916908369ffffffffffffffffffff16021790555060208201518160010155604082015181600201556060820151816003015560808201518160040160006101000a81548169ffffffffffffffffffff021916908369ffffffffffffffffffff16021790555050505050565b6040518060a00160405280600069ffffffffffffffffffff168152602001600081526020016000815260200160008152602001600069ffffffffffffffffffff1681525090565b600060ff82169050919050565b61086981610853565b82525050565b60006020820190506108846000830184610860565b92915050565b6000819050919050565b61089d8161088a565b82525050565b60006020820190506108b86000830184610894565b92915050565b6000819050919050565b6108d1816108be565b82525050565b60006020820190506108ec60008301846108c8565b92915050565b600081519050919050565b600082825260208201905092915050565b60005b8381101561092c578082015181840152602081019050610911565b60008484015250505050565b6000601f19601f8301169050919050565b6000610954826108f2565b61095e81856108fd565b935061096e81856020860161090e565b61097781610938565b840191505092915050565b6000602082019050818103600083015261099c8184610949565b905092915050565b600080fd5b600069ffffffffffffffffffff82169050919050565b6109c8816109a9565b81146109d357600080fd5b50565b6000813590506109e5816109bf565b92915050565b600060208284031215610a0157610a006109a4565b5b6000610a0f848285016109d6565b91505092915050565b610a21816109a9565b82525050565b600060a082019050610a3c6000830188610a18565b610a496020830187610894565b610a5660408301866108c8565b610a6360608301856108c8565b610a706080830184610a18565b9695505050505050565b610a83816108be565b8114610a8e57600080fd5b50565b600081359050610aa081610a7a565b92915050565b600060208284031215610abc57610abb6109a4565b5b6000610aca84828501610a91565b91505092915050565b610adc8161088a565b8114610ae757600080fd5b50565b600081359050610af981610ad3565b92915050565b600060208284031215610b1557610b146109a4565b5b6000610b2384828501610aea565b91505092915050565b7f4e487b7100000000000000000000000000000000000000000000000000000000600052602260045260246000fd5b60006002820490506001821680610b7357607f821691505b602082108103610b8657610b85610b2c565b5b50919050565b7f526f756e6449642063616e74206265207a65726f000000000000000000000000600082015250565b6000610bc26014836108fd565b9150610bcd82610b8c565b602082019050919050565b60006020820190508181036000830152610bf181610bb5565b9050919050565b7f4e487b7100000000000000000000000000000000000000000000000000000000600052601160045260246000fd5b6000610c32826109a9565b9150610c3d836109a9565b9250828203905069ffffffffffffffffffff811115610c5f57610c5e610bf8565b5b92915050565b7f4e487b7100000000000000000000000000000000000000000000000000000000600052603260045260246000fd5b7f4f776e61626c653a2063616c6c6572206973206e6f7420746865206f776e6572600082015250565b6000610cca6020836108fd565b9150610cd582610c94565b602082019050919050565b60006020820190508181036000830152610cf981610cbd565b9050919050565b6000610d0b826108be565b9150610d16836108be565b9250828203905081811115610d2e57610d2d610bf8565b5b92915050565b6000610d3f826109a9565b9150610d4a836109a9565b9250828201905069ffffffffffffffffffff811115610d6c57610d6b610bf8565b5b9291505056fea264697066735822122042caf2239b80dbe895cbf3d16d7f22d0375a7de6a9a226dd40d7c6f3560dd53764736f6c63430008110033",
  "linkReferences": {},
  "deployedLinkReferences": {}
}