{
  "_format": "hh-sol-artifact-1",
  "contractName": "NonfungiblePositionManager",
  "sourceName": "contracts/NonfungiblePositionManager.sol",
  "abi": [
    {
      "inputs": [
        {
          "internalType": "address",
          "name": "_factory",
          "type": "address"
        },
        {
          "internalType": "address",
          "name": "_WETH9",
          "type": "address"
        }
      ],
      "stateMutability": "nonpayable",
      "type": "constructor"
    },
    {
      "anonymous": false,
      "inputs": [
        {
          "indexed": true,
          "internalType": "address",
          "name": "owner",
          "type": "address"
        },
        {
          "indexed": true,
          "internalType": "address",
          "name": "approved",
          "type": "address"
        },
        {
          "indexed": true,
          "internalType": "uint256",
          "name": "tokenId",
          "type": "uint256"
        }
      ],
      "name": "Approval",
      "type": "event"
    },
    {
      "anonymous": false,
      "inputs": [
        {
          "indexed": true,
          "internalType": "address",
          "name": "owner",
          "type": "address"
        },
        {
          "indexed": true,
          "internalType": "address",
          "name": "operator",
          "type": "address"
        },
        {
          "indexed": false,
          "internalType": "bool",
          "name": "approved",
          "type": "bool"
        }
      ],
      "name": "ApprovalForAll",
      "type": "event"
    },
    {
      "anonymous": false,
      "inputs": [
        {
          "indexed": true,
          "internalType": "uint256",
          "name": "tokenId",
          "type": "uint256"
        },
        {
          "indexed": false,
          "internalType": "address",
          "name": "recipient",
          "type": "address"
        },
        {
          "indexed": false,
          "internalType": "uint256",
          "name": "amount0",
          "type": "uint256"
        },
        {
          "indexed": false,
          "internalType": "uint256",
          "name": "amount1",
          "type": "uint256"
        }
      ],
      "name": "Collect",
      "type": "event"
    },
    {
      "anonymous": false,
      "inputs": [
        {
          "indexed": true,
          "internalType": "uint256",
          "name": "tokenId",
          "type": "uint256"
        },
        {
          "indexed": false,
          "internalType": "uint128",
          "name": "liquidity",
          "type": "uint128"
        },
        {
          "indexed": false,
          "internalType": "uint256",
          "name": "amount0",
          "type": "uint256"
        },
        {
          "indexed": false,
          "internalType": "uint256",
          "name": "amount1",
          "type": "uint256"
        }
      ],
      "name": "DecreaseLiquidity",
      "type": "event"
    },
    {
      "anonymous": false,
      "inputs": [
        {
          "indexed": true,
          "internalType": "uint256",
          "name": "tokenId",
          "type": "uint256"
        },
        {
          "indexed": false,
          "internalType": "uint128",
          "name": "liquidity",
          "type": "uint128"
        },
        {
          "indexed": false,
          "internalType": "uint256",
          "name": "amount0",
          "type": "uint256"
        },
        {
          "indexed": false,
          "internalType": "uint256",
          "name": "amount1",
          "type": "uint256"
        }
      ],
      "name": "IncreaseLiquidity",
      "type": "event"
    },
    {
      "anonymous": false,
      "inputs": [
        {
          "indexed": true,
          "internalType": "address",
          "name": "from",
          "type": "address"
        },
        {
          "indexed": true,
          "internalType": "address",
          "name": "to",
          "type": "address"
        },
        {
          "indexed": true,
          "internalType": "uint256",
          "name": "tokenId",
          "type": "uint256"
        }
      ],
      "name": "Transfer",
      "type": "event"
    },
    {
      "inputs": [],
      "name": "DOMAIN_SEPARATOR",
      "outputs": [
        {
          "internalType": "bytes32",
          "name": "",
          "type": "bytes32"
        }
      ],
      "stateMutability": "view",
      "type": "function"
    },
    {
      "inputs": [],
      "name": "PERMIT_TYPEHASH",
      "outputs": [
        {
          "internalType": "bytes32",
          "name": "",
          "type": "bytes32"
        }
      ],
      "stateMutability": "view",
      "type": "function"
    },
    {
      "inputs": [],
      "name": "WETH9",
      "outputs": [
        {
          "internalType": "address",
          "name": "",
          "type": "address"
        }
      ],
      "stateMutability": "view",
      "type": "function"
    },
    {
      "inputs": [
        {
          "internalType": "address",
          "name": "to",
          "type": "address"
        },
        {
          "internalType": "uint256",
          "name": "tokenId",
          "type": "uint256"
        }
      ],
      "name": "approve",
      "outputs": [],
      "stateMutability": "nonpayable",
      "type": "function"
    },
    {
      "inputs": [
        {
          "internalType": "address",
          "name": "owner",
          "type": "address"
        }
      ],
      "name": "balanceOf",
      "outputs": [
        {
          "internalType": "uint256",
          "name": "",
          "type": "uint256"
        }
      ],
      "stateMutability": "view",
      "type": "function"
    },
    {
      "inputs": [],
      "name": "baseURI",
      "outputs": [
        {
          "internalType": "string",
          "name": "",
          "type": "string"
        }
      ],
      "stateMutability": "pure",
      "type": "function"
    },
    {
      "inputs": [
        {
          "internalType": "uint256",
          "name": "tokenId",
          "type": "uint256"
        }
      ],
      "name": "burn",
      "outputs": [],
      "stateMutability": "payable",
      "type": "function"
    },
    {
      "inputs": [
        {
          "components": [
            {
              "internalType": "uint256",
              "name": "tokenId",
              "type": "uint256"
            },
            {
              "internalType": "address",
              "name": "recipient",
              "type": "address"
            },
            {
              "internalType": "uint128",
              "name": "amount0Max",
              "type": "uint128"
            },
            {
              "internalType": "uint128",
              "name": "amount1Max",
              "type": "uint128"
            }
          ],
          "internalType": "struct INonfungiblePositionManager.CollectParams",
          "name": "params",
          "type": "tuple"
        }
      ],
      "name": "collect",
      "outputs": [
        {
          "internalType": "uint256",
          "name": "amount0",
          "type": "uint256"
        },
        {
          "internalType": "uint256",
          "name": "amount1",
          "type": "uint256"
        }
      ],
      "stateMutability": "payable",
      "type": "function"
    },
    {
      "inputs": [
        {
          "internalType": "address",
          "name": "token0",
          "type": "address"
        },
        {
          "internalType": "address",
          "name": "token1",
          "type": "address"
        },
        {
          "internalType": "uint24",
          "name": "fee",
          "type": "uint24"
        },
        {
          "internalType": "uint160",
          "name": "sqrtPriceX96",
          "type": "uint160"
        }
      ],
      "name": "createAndInitializePoolIfNecessary",
      "outputs": [
        {
          "internalType": "address",
          "name": "pool",
          "type": "address"
        }
      ],
      "stateMutability": "payable",
      "type": "function"
    },
    {
      "inputs": [
        {
          "components": [
            {
              "internalType": "uint256",
              "name": "tokenId",
              "type": "uint256"
            },
            {
              "internalType": "uint128",
              "name": "liquidity",
              "type": "uint128"
            },
            {
              "internalType": "uint256",
              "name": "amount0Min",
              "type": "uint256"
            },
            {
              "internalType": "uint256",
              "name": "amount1Min",
              "type": "uint256"
            },
            {
              "internalType": "uint256",
              "name": "deadline",
              "type": "uint256"
            }
          ],
          "internalType": "struct INonfungiblePositionManager.DecreaseLiquidityParams",
          "name": "params",
          "type": "tuple"
        }
      ],
      "name": "decreaseLiquidity",
      "outputs": [
        {
          "internalType": "uint256",
          "name": "amount0",
          "type": "uint256"
        },
        {
          "internalType": "uint256",
          "name": "amount1",
          "type": "uint256"
        }
      ],
      "stateMutability": "payable",
      "type": "function"
    },
    {
      "inputs": [],
      "name": "factory",
      "outputs": [
        {
          "internalType": "address",
          "name": "",
          "type": "address"
        }
      ],
      "stateMutability": "view",
      "type": "function"
    },
    {
      "inputs": [
        {
          "internalType": "uint256",
          "name": "tokenId",
          "type": "uint256"
        }
      ],
      "name": "getApproved",
      "outputs": [
        {
          "internalType": "address",
          "name": "",
          "type": "address"
        }
      ],
      "stateMutability": "view",
      "type": "function"
    },
    {
      "inputs": [
        {
          "components": [
            {
              "internalType": "uint256",
              "name": "tokenId",
              "type": "uint256"
            },
            {
              "internalType": "uint256",
              "name": "amount0Desired",
              "type": "uint256"
            },
            {
              "internalType": "uint256",
              "name": "amount1Desired",
              "type": "uint256"
            },
            {
              "internalType": "uint256",
              "name": "amount0Min",
              "type": "uint256"
            },
            {
              "internalType": "uint256",
              "name": "amount1Min",
              "type": "uint256"
            },
            {
              "internalType": "uint256",
              "name": "deadline",
              "type": "uint256"
            }
          ],
          "internalType": "struct INonfungiblePositionManager.IncreaseLiquidityParams",
          "name": "params",
          "type": "tuple"
        }
      ],
      "name": "increaseLiquidity",
      "outputs": [
        {
          "internalType": "uint128",
          "name": "liquidity",
          "type": "uint128"
        },
        {
          "internalType": "uint256",
          "name": "amount0",
          "type": "uint256"
        },
        {
          "internalType": "uint256",
          "name": "amount1",
          "type": "uint256"
        }
      ],
      "stateMutability": "payable",
      "type": "function"
    },
    {
      "inputs": [
        {
          "internalType": "address",
          "name": "owner",
          "type": "address"
        },
        {
          "internalType": "address",
          "name": "operator",
          "type": "address"
        }
      ],
      "name": "isApprovedForAll",
      "outputs": [
        {
          "internalType": "bool",
          "name": "",
          "type": "bool"
        }
      ],
      "stateMutability": "view",
      "type": "function"
    },
    {
      "inputs": [
        {
          "components": [
            {
              "internalType": "address",
              "name": "token0",
              "type": "address"
            },
            {
              "internalType": "address",
              "name": "token1",
              "type": "address"
            },
            {
              "internalType": "uint24",
              "name": "fee",
              "type": "uint24"
            },
            {
              "internalType": "int24",
              "name": "tickLower",
              "type": "int24"
            },
            {
              "internalType": "int24",
              "name": "tickUpper",
              "type": "int24"
            },
            {
              "internalType": "uint256",
              "name": "amount0Desired",
              "type": "uint256"
            },
            {
              "internalType": "uint256",
              "name": "amount1Desired",
              "type": "uint256"
            },
            {
              "internalType": "uint256",
              "name": "amount0Min",
              "type": "uint256"
            },
            {
              "internalType": "uint256",
              "name": "amount1Min",
              "type": "uint256"
            },
            {
              "internalType": "address",
              "name": "recipient",
              "type": "address"
            },
            {
              "internalType": "uint256",
              "name": "deadline",
              "type": "uint256"
            }
          ],
          "internalType": "struct INonfungiblePositionManager.MintParams",
          "name": "params",
          "type": "tuple"
        }
      ],
      "name": "mint",
      "outputs": [
        {
          "internalType": "uint256",
          "name": "tokenId",
          "type": "uint256"
        },
        {
          "internalType": "uint128",
          "name": "liquidity",
          "type": "uint128"
        },
        {
          "internalType": "uint256",
          "name": "amount0",
          "type": "uint256"
        },
        {
          "internalType": "uint256",
          "name": "amount1",
          "type": "uint256"
        }
      ],
      "stateMutability": "payable",
      "type": "function"
    },
    {
      "inputs": [
        {
          "internalType": "bytes[]",
          "name": "data",
          "type": "bytes[]"
        }
      ],
      "name": "multicall",
      "outputs": [
        {
          "internalType": "bytes[]",
          "name": "results",
          "type": "bytes[]"
        }
      ],
      "stateMutability": "payable",
      "type": "function"
    },
    {
      "inputs": [],
      "name": "name",
      "outputs": [
        {
          "internalType": "string",
          "name": "",
          "type": "string"
        }
      ],
      "stateMutability": "view",
      "type": "function"
    },
    {
      "inputs": [
        {
          "internalType": "uint256",
          "name": "tokenId",
          "type": "uint256"
        }
      ],
      "name": "ownerOf",
      "outputs": [
        {
          "internalType": "address",
          "name": "",
          "type": "address"
        }
      ],
      "stateMutability": "view",
      "type": "function"
    },
    {
      "inputs": [
        {
          "internalType": "address",
          "name": "spender",
          "type": "address"
        },
        {
          "internalType": "uint256",
          "name": "tokenId",
          "type": "uint256"
        },
        {
          "internalType": "uint256",
          "name": "deadline",
          "type": "uint256"
        },
        {
          "internalType": "uint8",
          "name": "v",
          "type": "uint8"
        },
        {
          "internalType": "bytes32",
          "name": "r",
          "type": "bytes32"
        },
        {
          "internalType": "bytes32",
          "name": "s",
          "type": "bytes32"
        }
      ],
      "name": "permit",
      "outputs": [],
      "stateMutability": "payable",
      "type": "function"
    },
    {
      "inputs": [
        {
          "internalType": "uint256",
          "name": "tokenId",
          "type": "uint256"
        }
      ],
      "name": "positions",
      "outputs": [
        {
          "internalType": "uint96",
          "name": "nonce",
          "type": "uint96"
        },
        {
          "internalType": "address",
          "name": "operator",
          "type": "address"
        },
        {
          "internalType": "address",
          "name": "token0",
          "type": "address"
        },
        {
          "internalType": "address",
          "name": "token1",
          "type": "address"
        },
        {
          "internalType": "uint24",
          "name": "fee",
          "type": "uint24"
        },
        {
          "internalType": "int24",
          "name": "tickLower",
          "type": "int24"
        },
        {
          "internalType": "int24",
          "name": "tickUpper",
          "type": "int24"
        },
        {
          "internalType": "uint128",
          "name": "liquidity",
          "type": "uint128"
        },
        {
          "internalType": "uint256",
          "name": "feeGrowthInside0LastX128",
          "type": "uint256"
        },
        {
          "internalType": "uint256",
          "name": "feeGrowthInside1LastX128",
          "type": "uint256"
        },
        {
          "internalType": "uint128",
          "name": "tokensOwed0",
          "type": "uint128"
        },
        {
          "internalType": "uint128",
          "name": "tokensOwed1",
          "type": "uint128"
        }
      ],
      "stateMutability": "view",
      "type": "function"
    },
    {
      "inputs": [],
      "name": "refundETH",
      "outputs": [],
      "stateMutability": "payable",
      "type": "function"
    },
    {
      "inputs": [
        {
          "internalType": "address",
          "name": "from",
          "type": "address"
        },
        {
          "internalType": "address",
          "name": "to",
          "type": "address"
        },
        {
          "internalType": "uint256",
          "name": "tokenId",
          "type": "uint256"
        }
      ],
      "name": "safeTransferFrom",
      "outputs": [],
      "stateMutability": "nonpayable",
      "type": "function"
    },
    {
      "inputs": [
        {
          "internalType": "address",
          "name": "from",
          "type": "address"
        },
        {
          "internalType": "address",
          "name": "to",
          "type": "address"
        },
        {
          "internalType": "uint256",
          "name": "tokenId",
          "type": "uint256"
        },
        {
          "internalType": "bytes",
          "name": "_data",
          "type": "bytes"
        }
      ],
      "name": "safeTransferFrom",
      "outputs": [],
      "stateMutability": "nonpayable",
      "type": "function"
    },
    {
      "inputs": [
        {
          "internalType": "address",
          "name": "token",
          "type": "address"
        },
        {
          "internalType": "uint256",
          "name": "value",
          "type": "uint256"
        },
        {
          "internalType": "uint256",
          "name": "deadline",
          "type": "uint256"
        },
        {
          "internalType": "uint8",
          "name": "v",
          "type": "uint8"
        },
        {
          "internalType": "bytes32",
          "name": "r",
          "type": "bytes32"
        },
        {
          "internalType": "bytes32",
          "name": "s",
          "type": "bytes32"
        }
      ],
      "name": "selfPermit",
      "outputs": [],
      "stateMutability": "payable",
      "type": "function"
    },
    {
      "inputs": [
        {
          "internalType": "address",
          "name": "token",
          "type": "address"
        },
        {
          "internalType": "uint256",
          "name": "nonce",
          "type": "uint256"
        },
        {
          "internalType": "uint256",
          "name": "expiry",
          "type": "uint256"
        },
        {
          "internalType": "uint8",
          "name": "v",
          "type": "uint8"
        },
        {
          "internalType": "bytes32",
          "name": "r",
          "type": "bytes32"
        },
        {
          "internalType": "bytes32",
          "name": "s",
          "type": "bytes32"
        }
      ],
      "name": "selfPermitAllowed",
      "outputs": [],
      "stateMutability": "payable",
      "type": "function"
    },
    {
      "inputs": [
        {
          "internalType": "address",
          "name": "token",
          "type": "address"
        },
        {
          "internalType": "uint256",
          "name": "nonce",
          "type": "uint256"
        },
        {
          "internalType": "uint256",
          "name": "expiry",
          "type": "uint256"
        },
        {
          "internalType": "uint8",
          "name": "v",
          "type": "uint8"
        },
        {
          "internalType": "bytes32",
          "name": "r",
          "type": "bytes32"
        },
        {
          "internalType": "bytes32",
          "name": "s",
          "type": "bytes32"
        }
      ],
      "name": "selfPermitAllowedIfNecessary",
      "outputs": [],
      "stateMutability": "payable",
      "type": "function"
    },
    {
      "inputs": [
        {
          "internalType": "address",
          "name": "token",
          "type": "address"
        },
        {
          "internalType": "uint256",
          "name": "value",
          "type": "uint256"
        },
        {
          "internalType": "uint256",
          "name": "deadline",
          "type": "uint256"
        },
        {
          "internalType": "uint8",
          "name": "v",
          "type": "uint8"
        },
        {
          "internalType": "bytes32",
          "name": "r",
          "type": "bytes32"
        },
        {
          "internalType": "bytes32",
          "name": "s",
          "type": "bytes32"
        }
      ],
      "name": "selfPermitIfNecessary",
      "outputs": [],
      "stateMutability": "payable",
      "type": "function"
    },
    {
      "inputs": [
        {
          "internalType": "address",
          "name": "operator",
          "type": "address"
        },
        {
          "internalType": "bool",
          "name": "approved",
          "type": "bool"
        }
      ],
      "name": "setApprovalForAll",
      "outputs": [],
      "stateMutability": "nonpayable",
      "type": "function"
    },
    {
      "inputs": [
        {
          "internalType": "bytes4",
          "name": "interfaceId",
          "type": "bytes4"
        }
      ],
      "name": "supportsInterface",
      "outputs": [
        {
          "internalType": "bool",
          "name": "",
          "type": "bool"
        }
      ],
      "stateMutability": "view",
      "type": "function"
    },
    {
      "inputs": [
        {
          "internalType": "address",
          "name": "token",
          "type": "address"
        },
        {
          "internalType": "uint256",
          "name": "amountMinimum",
          "type": "uint256"
        },
        {
          "internalType": "address",
          "name": "recipient",
          "type": "address"
        }
      ],
      "name": "sweepToken",
      "outputs": [],
      "stateMutability": "payable",
      "type": "function"
    },
    {
      "inputs": [],
      "name": "symbol",
      "outputs": [
        {
          "internalType": "string",
          "name": "",
          "type": "string"
        }
      ],
      "stateMutability": "view",
      "type": "function"
    },
    {
      "inputs": [
        {
          "internalType": "uint256",
          "name": "index",
          "type": "uint256"
        }
      ],
      "name": "tokenByIndex",
      "outputs": [
        {
          "internalType": "uint256",
          "name": "",
          "type": "uint256"
        }
      ],
      "stateMutability": "view",
      "type": "function"
    },
    {
      "inputs": [
        {
          "internalType": "address",
          "name": "owner",
          "type": "address"
        },
        {
          "internalType": "uint256",
          "name": "index",
          "type": "uint256"
        }
      ],
      "name": "tokenOfOwnerByIndex",
      "outputs": [
        {
          "internalType": "uint256",
          "name": "",
          "type": "uint256"
        }
      ],
      "stateMutability": "view",
      "type": "function"
    },
    {
      "inputs": [
        {
          "internalType": "uint256",
          "name": "tokenId",
          "type": "uint256"
        }
      ],
      "name": "tokenURI",
      "outputs": [
        {
          "internalType": "string",
          "name": "",
          "type": "string"
        }
      ],
      "stateMutability": "view",
      "type": "function"
    },
    {
      "inputs": [],
      "name": "totalSupply",
      "outputs": [
        {
          "internalType": "uint256",
          "name": "",
          "type": "uint256"
        }
      ],
      "stateMutability": "view",
      "type": "function"
    },
    {
      "inputs": [
        {
          "internalType": "address",
          "name": "from",
          "type": "address"
        },
        {
          "internalType": "address",
          "name": "to",
          "type": "address"
        },
        {
          "internalType": "uint256",
          "name": "tokenId",
          "type": "uint256"
        }
      ],
      "name": "transferFrom",
      "outputs": [],
      "stateMutability": "nonpayable",
      "type": "function"
    },
    {
      "inputs": [
        {
          "internalType": "uint256",
          "name": "amount0Owed",
          "type": "uint256"
        },
        {
          "internalType": "uint256",
          "name": "amount1Owed",
          "type": "uint256"
        },
        {
          "internalType": "bytes",
          "name": "data",
          "type": "bytes"
        }
      ],
      "name": "uniswapV3MintCallback",
      "outputs": [],
      "stateMutability": "nonpayable",
      "type": "function"
    },
    {
      "inputs": [
        {
          "internalType": "uint256",
          "name": "amountMinimum",
          "type": "uint256"
        },
        {
          "internalType": "address",
          "name": "recipient",
          "type": "address"
        }
      ],
      "name": "unwrapWETH9",
      "outputs": [],
      "stateMutability": "payable",
      "type": "function"
    },
    {
      "stateMutability": "payable",
      "type": "receive"
    }
  ],
  "bytecode": "0x610100604052600d80546001600160b01b0319166001176001600160b01b0316600160b01b1790553480156200003457600080fd5b5060405162005c0238038062005c028339810160408190526200005791620002d1565b81816040518060400160405280601b81526020017f556e697377617020563320506f736974696f6e73204e46542d563100000000008152506040518060400160405280600a815260200169554e492d56332d504f5360b01b815250604051806040016040528060018152602001603160f81b8152508282620000e66301ffc9a760e01b6200018360201b60201c565b8151620000fb90600690602085019062000208565b5080516200011190600790602084019062000208565b50620001246380ac58cd60e01b62000183565b62000136635b5e139f60e01b62000183565b6200014863780e9d6360e01b62000183565b50508251602093840120608052805192019190912060a052506001600160601b0319606092831b811660c052911b1660e05250620003089050565b6001600160e01b03198082161415620001e3576040805162461bcd60e51b815260206004820152601c60248201527f4552433136353a20696e76616c696420696e7465726661636520696400000000604482015290519081900360640190fd5b6001600160e01b0319166000908152602081905260409020805460ff19166001179055565b828054600181600116156101000203166002900490600052602060002090601f0160209004810192826200024057600085556200028b565b82601f106200025b57805160ff19168380011785556200028b565b828001600101855582156200028b579182015b828111156200028b5782518255916020019190600101906200026e565b50620002999291506200029d565b5090565b5b808211156200029957600081556001016200029e565b80516001600160a01b0381168114620002cc57600080fd5b919050565b60008060408385031215620002e4578182fd5b620002ef83620002b4565b9150620002ff60208401620002b4565b90509250929050565b60805160a05160c05160601c60e05160601c61588262000380600039806101c95280611575528061166052806116e85280613916528061395c52806139d05250806109955280610cb55280610d7c52806126d5528061274f5280612a49528061324c52508061137552508061135452506158826000f3fe6080604052600436106101b95760003560e01c806301ffc9a71461022e57806306fdde0314610264578063081812fc14610286578063095ea7b3146102b35780630c49ccbe146102d357806312210e8a146102f457806313ead562146102fc57806318160ddd1461030f578063219f5d171461033157806323b872dd146103535780632f745c591461037357806330adf81f146103935780633644e515146103a857806342842e0e146103bd57806342966c68146103dd5780634659a494146103f057806349404b7c146104035780634aa4a4fc146104165780634f6ccce71461042b5780636352211e1461044b5780636c0360eb1461046b57806370a08231146104805780637ac2ff7b146104a057806388316456146104b357806395d89b41146104d657806399fbab88146104eb578063a22cb46514610523578063a4a78f0c14610543578063ac9650d814610556578063b88d4fde14610576578063c2e3140a14610596578063c45a0155146105a9578063c87b56dd146105be578063d3487997146105de578063df2ab5bb146105fe578063e985e9c514610611578063f3995c6714610631578063fc6f78651461064457610229565b3661022957336001600160a01b037f00000000000000000000000000000000000000000000000000000000000000001614610227576040805162461bcd60e51b81526020600482015260096024820152684e6f7420574554483960b81b604482015290519081900360640190fd5b005b600080fd5b34801561023a57600080fd5b5061024e610249366004614d1f565b610657565b60405161025b9190615260565b60405180910390f35b34801561027057600080fd5b5061027961067a565b60405161025b919061529a565b34801561029257600080fd5b506102a66102a1366004615017565b610710565b60405161025b9190615140565b3480156102bf57600080fd5b506102276102ce366004614bea565b610763565b6102e66102e1366004614de3565b610839565b60405161025b929190615421565b610227610c81565b6102a661030a366004614a7e565b610c93565b34801561031b57600080fd5b50610324610f87565b60405161025b919061526b565b61034461033f366004614df4565b610f98565b60405161025b939291906153dc565b34801561035f57600080fd5b5061022761036e366004614ad7565b61129b565b34801561037f57600080fd5b5061032461038e366004614bea565b6112f2565b34801561039f57600080fd5b5061032461131d565b3480156103b457600080fd5b5061032461132f565b3480156103c957600080fd5b506102276103d8366004614ad7565b6113ed565b6102276103eb366004615017565b611408565b6102276103fe366004614c56565b6114d7565b61022761041136600461502f565b611571565b34801561042257600080fd5b506102a66116e6565b34801561043757600080fd5b50610324610446366004615017565b61170a565b34801561045757600080fd5b506102a6610466366004615017565b611720565b34801561047757600080fd5b50610279611748565b34801561048c57600080fd5b5061032461049b366004614a2a565b61174d565b6102276104ae366004614c56565b6117b5565b6104c66104c1366004614eaf565b611b95565b60405161025b94939291906153fd565b3480156104e257600080fd5b5061027961209b565b3480156104f757600080fd5b5061050b610506366004615017565b6120fc565b60405161025b9c9b9a9998979695949392919061542f565b34801561052f57600080fd5b5061022761053e366004614bbd565b61230d565b610227610551366004614c56565b61240e565b610569610564366004614cb1565b6124a7565b60405161025b9190615200565b34801561058257600080fd5b50610227610591366004614b17565b6125e6565b6102276105a4366004614c56565b612644565b3480156105b557600080fd5b506102a66126d3565b3480156105ca57600080fd5b506102796105d9366004615017565b6126f7565b3480156105ea57600080fd5b506102276105f9366004615076565b61273a565b61022761060c366004614c15565b6127b8565b34801561061d57600080fd5b5061024e61062c366004614a46565b612890565b61022761063f366004614c56565b6128be565b6102e6610652366004614dcc565b612930565b6001600160e01b0319811660009081526020819052604090205460ff165b919050565b60068054604080516020601f60026000196101006001881615020190951694909404938401819004810282018101909252828152606093909290918301828280156107065780601f106106db57610100808354040283529160200191610706565b820191906000526020600020905b8154815290600101906020018083116106e957829003601f168201915b5050505050905090565b600061071b82612dfb565b6107405760405162461bcd60e51b8152600401610737906152d3565b60405180910390fd5b506000908152600c6020526040902054600160601b90046001600160a01b031690565b600061076e82611720565b9050806001600160a01b0316836001600160a01b031614156107c15760405162461bcd60e51b81526004018080602001828103825260218152602001806157fb6021913960400191505060405180910390fd5b806001600160a01b03166107d3612e08565b6001600160a01b031614806107ef57506107ef8161062c612e08565b61082a5760405162461bcd60e51b81526004018080602001828103825260388152602001806156c56038913960400191505060405180910390fd5b6108348383612e0c565b505050565b60008082356108483382612e82565b6108645760405162461bcd60e51b8152600401610737906152ad565b836080013580610872612f1e565b11156108bb576040805162461bcd60e51b8152602060048201526013602482015272151c985b9cd858dd1a5bdb881d1bdbc81bdb19606a1b604482015290519081900360640190fd5b60006108cd6040870160208801614ec1565b6001600160801b0316116108e057600080fd5b84356000908152600c602090815260409182902060018101549092600160801b9091046001600160801b03169161091b918901908901614ec1565b6001600160801b0316816001600160801b0316101561093957600080fd5b6001828101546001600160501b03166000908152600b60209081526040808320815160608101835281546001600160a01b039081168252919095015490811692850192909252600160a01b90910462ffffff16908301526109ba7f000000000000000000000000000000000000000000000000000000000000000083612f22565b60018501549091506001600160a01b0382169063a34123a790600160501b8104600290810b91600160681b9004900b6109f960408e0160208f01614ec1565b6040518463ffffffff1660e01b8152600401610a1793929190615274565b6040805180830381600087803b158015610a3057600080fd5b505af1158015610a44573d6000803e3d6000fd5b505050506040513d601f19601f82011682018060405250810190610a689190615053565b909850965060408901358810801590610a85575088606001358710155b610aa15760405162461bcd60e51b81526004016107379061531f565b6001840154600090610aca903090600160501b8104600290810b91600160681b9004900b613001565b9050600080836001600160a01b031663514ea4bf846040518263ffffffff1660e01b8152600401610afb919061526b565b60a06040518083038186803b158015610b1357600080fd5b505afa158015610b27573d6000803e3d6000fd5b505050506040513d601f19601f82011682018060405250810190610b4b9190614f0b565b50509250925050610b7087600201548303876001600160801b0316600160801b613056565b6004880180546001600160801b03198116928e016001600160801b039182160181169290921790556003880154610bb191908303908816600160801b613056565b6004880180546001600160801b03808216938e01600160801b9283900482160116029190911790556002870182905560038701819055610bf760408d0160208e01614ec1565b86038760010160106101000a8154816001600160801b0302191690836001600160801b031602179055508b600001357f26f6a048ee9138f2c0ce266f322cb99228e8d619ae2bff30c67f8dcf9d2377b48d6020016020810190610c5a9190614ec1565b8d8d604051610c6b939291906153dc565b60405180910390a2505050505050505050915091565b4715610c9157610c913347613105565b565b6000836001600160a01b0316856001600160a01b031610610cb357600080fd5b7f00000000000000000000000000000000000000000000000000000000000000006001600160a01b0316631698ee828686866040518463ffffffff1660e01b815260040180846001600160a01b03168152602001836001600160a01b031681526020018262ffffff168152602001935050505060206040518083038186803b158015610d3e57600080fd5b505afa158015610d52573d6000803e3d6000fd5b505050506040513d6020811015610d6857600080fd5b505190506001600160a01b038116610e9e577f00000000000000000000000000000000000000000000000000000000000000006001600160a01b031663a16712958686866040518463ffffffff1660e01b815260040180846001600160a01b03168152602001836001600160a01b031681526020018262ffffff1681526020019350505050602060405180830381600087803b158015610e0757600080fd5b505af1158015610e1b573d6000803e3d6000fd5b505050506040513d6020811015610e3157600080fd5b50516040805163f637731d60e01b81526001600160a01b03858116600483015291519293509083169163f637731d9160248082019260009290919082900301818387803b158015610e8157600080fd5b505af1158015610e95573d6000803e3d6000fd5b50505050610f7f565b6000816001600160a01b0316633850c7bd6040518163ffffffff1660e01b815260040160e06040518083038186803b158015610ed957600080fd5b505afa158015610eed573d6000803e3d6000fd5b505050506040513d60e0811015610f0357600080fd5b505190506001600160a01b038116610f7d57816001600160a01b031663f637731d846040518263ffffffff1660e01b815260040180826001600160a01b03168152602001915050600060405180830381600087803b158015610f6457600080fd5b505af1158015610f78573d6000803e3d6000fd5b505050505b505b949350505050565b6000610f9360026131f4565b905090565b60008060008360a0013580610fab612f1e565b1115610ff4576040805162461bcd60e51b8152602060048201526013602482015272151c985b9cd858dd1a5bdb881d1bdbc81bdb19606a1b604482015290519081900360640190fd5b84356000908152600c602090815260408083206001808201546001600160501b0381168652600b855283862084516060808201875282546001600160a01b039081168352929094015480831682890190815262ffffff600160a01b9092048216838901908152885161014081018a528451861681529151909416818a0152925116828701523082850152600160501b8304600290810b810b608080850191909152600160681b909404810b900b60a0830152958c013560c0820152938b013560e0850152908a013561010084015289013561012083015292906110d6906131ff565b6001870154939a5091985096509150600090611109903090600160501b8104600290810b91600160681b9004900b613001565b9050600080836001600160a01b031663514ea4bf846040518263ffffffff1660e01b815260040161113a919061526b565b60a06040518083038186803b15801561115257600080fd5b505afa158015611166573d6000803e3d6000fd5b505050506040513d601f19601f8201168201806040525081019061118a9190614f0b565b505092509250506111c6866002015483038760010160109054906101000a90046001600160801b03166001600160801b0316600160801b613056565b6004870180546001600160801b0380821690930183166001600160801b03199091161790556003870154600188015461120d9291840391600160801b918290041690613056565b6004870180546001600160801b03600160801b80830482169094018116840291811691909117909155600288018490556003880183905560018801805483810483168e018316909302929091169190911790556040518b359060008051602061577283398151915290611285908d908d908d906153dc565b60405180910390a2505050505050509193909250565b6112ac6112a6612e08565b82612e82565b6112e75760405162461bcd60e51b815260040180806020018281038252603181526020018061581c6031913960400191505060405180910390fd5b61083483838361343a565b6001600160a01b03821660009081526001602052604081206113149083613574565b90505b92915050565b6000805160206157bb83398151915281565b60007f8b73c3c69bb8fe3d512ecc4cf759cc79239f7b179b0ffacaa9a75d522b39400f7f00000000000000000000000000000000000000000000000000000000000000007f000000000000000000000000000000000000000000000000000000000000000061139c613580565b3060405160200180868152602001858152602001848152602001838152602001826001600160a01b031681526020019550505050505060405160208183030381529060405280519060200120905090565b610834838383604051806020016040528060008152506125e6565b806114133382612e82565b61142f5760405162461bcd60e51b8152600401610737906152ad565b6000828152600c602052604090206001810154600160801b90046001600160801b031615801561146a575060048101546001600160801b0316155b801561148857506004810154600160801b90046001600160801b0316155b6114a45760405162461bcd60e51b815260040161073790615377565b6000838152600c602052604081208181556001810182905560028101829055600381018290556004015561083483613584565b604080516323f2ebc360e21b815233600482015230602482015260448101879052606481018690526001608482015260ff851660a482015260c4810184905260e4810183905290516001600160a01b03881691638fcbaf0c9161010480830192600092919082900301818387803b15801561155157600080fd5b505af1158015611565573d6000803e3d6000fd5b50505050505050505050565b60007f00000000000000000000000000000000000000000000000000000000000000006001600160a01b03166370a08231306040518263ffffffff1660e01b815260040180826001600160a01b0316815260200191505060206040518083038186803b1580156115e057600080fd5b505afa1580156115f4573d6000803e3d6000fd5b505050506040513d602081101561160a57600080fd5b5051905082811015611658576040805162461bcd60e51b8152602060048201526012602482015271496e73756666696369656e7420574554483960701b604482015290519081900360640190fd5b8015610834577f00000000000000000000000000000000000000000000000000000000000000006001600160a01b0316632e1a7d4d826040518263ffffffff1660e01b815260040180828152602001915050600060405180830381600087803b1580156116c457600080fd5b505af11580156116d8573d6000803e3d6000fd5b505050506108348282613105565b7f000000000000000000000000000000000000000000000000000000000000000081565b60008061171860028461363f565b509392505050565b600061131782604051806060016040528060298152602001615727602991396002919061365d565b606090565b60006001600160a01b0382166117945760405162461bcd60e51b815260040180806020018281038252602a8152602001806156fd602a913960400191505060405180910390fd5b6001600160a01b0382166000908152600160205260409020611317906131f4565b836117be612f1e565b1115611802576040805162461bcd60e51b815260206004820152600e60248201526d14195c9b5a5d08195e1c1a5c995960921b604482015290519081900360640190fd5b600061180c61132f565b6000805160206157bb83398151915288886118268161366a565b604080516020808201969096526001600160a01b03909416848201526060840192909252608083015260a08083018a90528151808403909101815260c08301825280519084012061190160f01b60e084015260e2830194909452610102808301949094528051808303909401845261012290910190528151910120905060006118ae87611720565b9050806001600160a01b0316886001600160a01b031614156119015760405162461bcd60e51b81526004018080602001828103825260278152602001806156286027913960400191505060405180910390fd5b61190a8161369f565b15611a72576040805160208082018790528183018690526001600160f81b031960f889901b1660608301528251604181840301815260618301808552630b135d3f60e11b90526065830186815260858401948552815160a585015281516001600160a01b03871695631626ba7e958995919260c59091019185019080838360005b838110156119a357818101518382015260200161198b565b50505050905090810190601f1680156119d05780820380516001836020036101000a031916815260200191505b50935050505060206040518083038186803b1580156119ee57600080fd5b505afa158015611a02573d6000803e3d6000fd5b505050506040513d6020811015611a1857600080fd5b50516001600160e01b031916630b135d3f60e11b14611a6d576040805162461bcd60e51b815260206004820152600c60248201526b155b985d5d1a1bdc9a5e995960a21b604482015290519081900360640190fd5b611b81565b600060018387878760405160008152602001604052604051808581526020018460ff1681526020018381526020018281526020019450505050506020604051602081039080840390855afa158015611ace573d6000803e3d6000fd5b5050604051601f1901519150506001600160a01b038116611b2a576040805162461bcd60e51b8152602060048201526011602482015270496e76616c6964207369676e617475726560781b604482015290519081900360640190fd5b816001600160a01b0316816001600160a01b031614611b7f576040805162461bcd60e51b815260206004820152600c60248201526b155b985d5d1a1bdc9a5e995960a21b604482015290519081900360640190fd5b505b611b8b8888612e0c565b5050505050505050565b60008060008084610140013580611baa612f1e565b1115611bf3576040805162461bcd60e51b8152602060048201526013602482015272151c985b9cd858dd1a5bdb881d1bdbc81bdb19606a1b604482015290519081900360640190fd5b604080516101408101909152600090611cbf9080611c1460208b018b614a2a565b6001600160a01b03168152602001896020016020810190611c359190614a2a565b6001600160a01b03168152602001611c5360608b0160408c01614ffd565b62ffffff168152306020820152604001611c7360808b0160608c01614d47565b60020b8152602001611c8b60a08b0160808c01614d47565b60020b81526020018960a0013581526020018960c0013581526020018960e0013581526020018961010001358152506131ff565b92975090955093509050611d0c611cde61014089016101208a01614a2a565b600d80546001600160b01b0319811660016001600160b01b03928316908101909216179091559750876136a5565b6000611d3730611d2260808b0160608c01614d47565b611d3260a08c0160808d01614d47565b613001565b9050600080836001600160a01b031663514ea4bf846040518263ffffffff1660e01b8152600401611d68919061526b565b60a06040518083038186803b158015611d8057600080fd5b505afa158015611d94573d6000803e3d6000fd5b505050506040513d601f19601f82011682018060405250810190611db89190614f0b565b505092509250506000611e318560405180606001604052808e6000016020810190611de39190614a2a565b6001600160a01b031681526020018e6020016020810190611e049190614a2a565b6001600160a01b031681526020018e6040016020810190611e259190614ffd565b62ffffff1690526137c0565b905060405180610140016040528060006001600160601b0316815260200160006001600160a01b03168152602001826001600160501b031681526020018c6060016020810190611e819190614d47565b60020b8152602001611e9960a08e0160808f01614d47565b60020b81526020018a6001600160801b0316815260200184815260200183815260200160006001600160801b0316815260200160006001600160801b0316815250600c60008c815260200190815260200160002060008201518160000160006101000a8154816001600160601b0302191690836001600160601b03160217905550602082015181600001600c6101000a8154816001600160a01b0302191690836001600160a01b0316021790555060408201518160010160006101000a8154816001600160501b0302191690836001600160501b03160217905550606082015181600101600a6101000a81548162ffffff021916908360020b62ffffff160217905550608082015181600101600d6101000a81548162ffffff021916908360020b62ffffff16021790555060a08201518160010160106101000a8154816001600160801b0302191690836001600160801b0316021790555060c0820151816002015560e082015181600301556101008201518160040160006101000a8154816001600160801b0302191690836001600160801b031602179055506101208201518160040160106101000a8154816001600160801b0302191690836001600160801b03160217905550905050896000805160206157728339815191528a8a8a604051612086939291906153dc565b60405180910390a25050505050509193509193565b60078054604080516020601f60026000196101006001881615020190951694909404938401819004810282018101909252828152606093909290918301828280156107065780601f106106db57610100808354040283529160200191610706565b6000818152600c6020908152604080832081516101408101835281546001600160601b03811682526001600160a01b03600160601b909104169381019390935260018101546001600160501b038116928401839052600160501b8104600290810b810b810b6060860152600160681b8204810b810b810b60808601526001600160801b03600160801b92839004811660a08701529083015460c0860152600383015460e0860152600490920154808316610100860152041661012083015282918291829182918291829182918291829182918291906121ed5760405162461bcd60e51b81526004016107379061534d565b6000600b600083604001516001600160501b03166001600160501b031681526020019081526020016000206040518060600160405290816000820160009054906101000a90046001600160a01b03166001600160a01b03166001600160a01b031681526020016001820160009054906101000a90046001600160a01b03166001600160a01b03166001600160a01b031681526020016001820160149054906101000a900462ffffff1662ffffff1662ffffff1681525050905081600001518260200151826000015183602001518460400151866060015187608001518860a001518960c001518a60e001518b61010001518c61012001519d509d509d509d509d509d509d509d509d509d509d509d50505091939597999b5091939597999b565b612315612e08565b6001600160a01b0316826001600160a01b03161415612377576040805162461bcd60e51b815260206004820152601960248201527822a9219b99189d1030b8383937bb32903a379031b0b63632b960391b604482015290519081900360640190fd5b8060056000612384612e08565b6001600160a01b03908116825260208083019390935260409182016000908120918716808252919093529120805460ff1916921515929092179091556123c8612e08565b6001600160a01b03167f17307eab39ab6107e8899845ad3d59bd9653f200f220920489ca2b5937696c318360405180821515815260200191505060405180910390a35050565b60408051636eb1769f60e11b81523360048201523060248201529051600019916001600160a01b0389169163dd62ed3e91604480820192602092909190829003018186803b15801561245f57600080fd5b505afa158015612473573d6000803e3d6000fd5b505050506040513d602081101561248957600080fd5b5051101561249f5761249f8686868686866114d7565b505050505050565b6060816001600160401b03811180156124bf57600080fd5b506040519080825280602002602001820160405280156124f357816020015b60608152602001906001900390816124de5790505b50905060005b828110156125df576000803086868581811061251157fe5b905060200281019061252391906154c9565b604051612531929190615130565b600060405180830381855af49150503d806000811461256c576040519150601f19603f3d011682016040523d82523d6000602084013e612571565b606091505b5091509150816125bd5760448151101561258a57600080fd5b600481019050808060200190518101906125a49190614d63565b60405162461bcd60e51b8152600401610737919061529a565b808484815181106125ca57fe5b602090810291909101015250506001016124f9565b5092915050565b6125f76125f1612e08565b83612e82565b6126325760405162461bcd60e51b815260040180806020018281038252603181526020018061581c6031913960400191505060405180910390fd5b61263e8484848461389f565b50505050565b60408051636eb1769f60e11b8152336004820152306024820152905186916001600160a01b0389169163dd62ed3e91604480820192602092909190829003018186803b15801561269357600080fd5b505afa1580156126a7573d6000803e3d6000fd5b505050506040513d60208110156126bd57600080fd5b5051101561249f5761249f8686868686866128be565b7f000000000000000000000000000000000000000000000000000000000000000081565b606061270282612dfb565b61270b57600080fd5b50506040805180820190915260138152724d4f434b20556e69737761702056332055726960681b602082015290565b600061274882840184614e05565b90506127787f000000000000000000000000000000000000000000000000000000000000000082600001516138f1565b50841561279357805151602082015161279391903388613914565b83156127b1576127b181600001516020015182602001513387613914565b5050505050565b6000836001600160a01b03166370a08231306040518263ffffffff1660e01b815260040180826001600160a01b0316815260200191505060206040518083038186803b15801561280757600080fd5b505afa15801561281b573d6000803e3d6000fd5b505050506040513d602081101561283157600080fd5b505190508281101561287f576040805162461bcd60e51b815260206004820152601260248201527124b739bab33334b1b4b2b73a103a37b5b2b760711b604482015290519081900360640190fd5b801561263e5761263e848383613aa4565b6001600160a01b03918216600090815260056020908152604080832093909416825291909152205460ff1690565b6040805163d505accf60e01b8152336004820152306024820152604481018790526064810186905260ff8516608482015260a4810184905260c4810183905290516001600160a01b0388169163d505accf9160e480830192600092919082900301818387803b15801561155157600080fd5b600080823561293f3382612e82565b61295b5760405162461bcd60e51b8152600401610737906152ad565b600061296d6060860160408701614ec1565b6001600160801b0316118061299a5750600061298f6080860160608701614ec1565b6001600160801b0316115b6129a357600080fd5b6000806129b66040870160208801614a2a565b6001600160a01b0316146129d9576129d46040860160208701614a2a565b6129db565b305b85356000908152600c602090815260408083206001808201546001600160501b03168552600b8452828520835160608101855281546001600160a01b039081168252919092015490811694820194909452600160a01b90930462ffffff169183019190915292935090612a6e7f000000000000000000000000000000000000000000000000000000000000000083612f22565b600484015460018501549192506001600160801b0380821692600160801b9283900482169290041615612c6457600185015460405163a34123a760e01b81526001600160a01b0385169163a34123a791612ae591600160501b8104600290810b92600160681b909204900b90600090600401615274565b6040805180830381600087803b158015612afe57600080fd5b505af1158015612b12573d6000803e3d6000fd5b505050506040513d601f19601f82011682018060405250810190612b369190615053565b5050600185015460009081906001600160a01b0386169063514ea4bf90612b74903090600160501b8104600290810b91600160681b9004900b613001565b6040518263ffffffff1660e01b8152600401612b90919061526b565b60a06040518083038186803b158015612ba857600080fd5b505afa158015612bbc573d6000803e3d6000fd5b505050506040513d601f19601f82011682018060405250810190612be09190614f0b565b50509250925050612c1c876002015483038860010160109054906101000a90046001600160801b03166001600160801b0316600160801b613056565b84019350612c55876003015482038860010160109054906101000a90046001600160801b03166001600160801b0316600160801b613056565b60028801929092556003870155015b6000806001600160801b038416612c8160608e0160408f01614ec1565b6001600160801b031611612ca457612c9f60608d0160408e01614ec1565b612ca6565b835b836001600160801b03168d6060016020810190612cc39190614ec1565b6001600160801b031611612ce657612ce160808e0160608f01614ec1565b612ce8565b835b60018901546040516309e3d67b60e31b81529294509092506001600160a01b03871691634f1eb3d891612d3b918c91600160501b8104600290810b92600160681b909204900b9088908890600401615199565b6040805180830381600087803b158015612d5457600080fd5b505af1158015612d68573d6000803e3d6000fd5b505050506040513d601f19601f82011682018060405250810190612d8c9190614edd565b6004890180546001600160801b03196001600160801b03918216600160801b878a0384160217168689038216179091556040519281169d50169a508c35907f40d0efd1a53d60ecbf40971b9daf7dc90178c3aadc7aab1765632738fa8b8f0190610c6b908b90869086906151d6565b6000611317600283613beb565b3390565b6000818152600c6020526040902080546001600160601b0316600160601b6001600160a01b038516908102919091179091558190612e4982611720565b6001600160a01b03167f8c5be1e5ebec7d5bd14f71427d1e84f3dd0314c0f7b2291e5b200ac8c7c3b92560405160405180910390a45050565b6000612e8d82612dfb565b612ec85760405162461bcd60e51b815260040180806020018281038252602c815260200180615699602c913960400191505060405180910390fd5b6000612ed383611720565b9050806001600160a01b0316846001600160a01b03161480612f0e5750836001600160a01b0316612f0384610710565b6001600160a01b0316145b80610f7f5750610f7f8185612890565b4290565b600081602001516001600160a01b031682600001516001600160a01b031610612f4a57600080fd5b50805160208083015160409384015184516001600160a01b0394851681850152939091168385015262ffffff166060808401919091528351808403820181526080840185528051908301206001600160f81b031960a085015294901b6001600160601b03191660a183015260b58201939093527fe34f199b19b2b4f47f68442619d555527d244f78a3297ea89325f843f87b8b5460d5808301919091528251808303909101815260f5909101909152805191012090565b604080516001600160601b0319606086901b16602080830191909152600285810b60e890811b60348501529085900b901b60378301528251601a818403018152603a90920190925280519101205b9392505050565b600080806000198587098686029250828110908390030390508061308c576000841161308157600080fd5b50829004905061304f565b80841161309857600080fd5b6000848688096000868103871696879004966002600389028118808a02820302808a02820302808a02820302808a02820302808a02820302808a02909103029181900381900460010186841190950394909402919094039290920491909117919091029150509392505050565b604080516000808252602082019092526001600160a01b0384169083906040518082805190602001908083835b602083106131515780518252601f199092019160209182019101613132565b6001836020036101000a03801982511681845116808217855250505050505090500191505060006040518083038185875af1925050503d80600081146131b3576040519150601f19603f3d011682016040523d82523d6000602084013e6131b8565b606091505b5050905080610834576040805162461bcd60e51b815260206004820152600360248201526253544560e81b604482015290519081900360640190fd5b600061131782613bf7565b6000806000806000604051806060016040528087600001516001600160a01b0316815260200187602001516001600160a01b03168152602001876040015162ffffff1681525090506132717f000000000000000000000000000000000000000000000000000000000000000082612f22565b91506000826001600160a01b0316633850c7bd6040518163ffffffff1660e01b815260040160e06040518083038186803b1580156132ae57600080fd5b505afa1580156132c2573d6000803e3d6000fd5b505050506040513d601f19601f820116820180604052508101906132e69190614f6c565b505050505050905060006132fd8860800151613bfb565b9050600061330e8960a00151613bfb565b90506133258383838c60c001518d60e00151613f22565b9750505050816001600160a01b0316633c8a7d8d876060015188608001518960a00151896040518060400160405280888152602001336001600160a01b0316815250604051602001613377919061539c565b6040516020818303038152906040526040518663ffffffff1660e01b81526004016133a6959493929190615154565b6040805180830381600087803b1580156133bf57600080fd5b505af11580156133d3573d6000803e3d6000fd5b505050506040513d601f19601f820116820180604052508101906133f79190615053565b6101008801519195509350841080159061341657508561012001518310155b6134325760405162461bcd60e51b81526004016107379061531f565b509193509193565b826001600160a01b031661344d82611720565b6001600160a01b0316146134925760405162461bcd60e51b81526004018080602001828103825260298152602001806157926029913960400191505060405180910390fd5b6001600160a01b0382166134d75760405162461bcd60e51b815260040180806020018281038252602481526020018061564f6024913960400191505060405180910390fd5b6134e2838383610834565b6134ed600082612e0c565b6001600160a01b038316600090815260016020526040902061350f9082613fe6565b506001600160a01b03821660009081526001602052604090206135329082613ff2565b5061353f60028284613ffe565b5080826001600160a01b0316846001600160a01b03166000805160206157db83398151915260405160405180910390a4505050565b60006113148383614014565b4690565b600061358f82611720565b905061359d81600084610834565b6135a8600083612e0c565b60008281526008602052604090205460026000196101006001841615020190911604156135e65760008281526008602052604081206135e69161499a565b6001600160a01b03811660009081526001602052604090206136089083613fe6565b50613614600283614078565b5060405182906000906001600160a01b038416906000805160206157db833981519152908390a45050565b600080808061364e8686614084565b909450925050505b9250929050565b6000610f7f8484846140ff565b6000908152600c6020526040902080546001600160601b0319811660016001600160601b039283169081019092161790915590565b3b151590565b6001600160a01b038216613700576040805162461bcd60e51b815260206004820181905260248201527f4552433732313a206d696e7420746f20746865207a65726f2061646472657373604482015290519081900360640190fd5b61370981612dfb565b1561375a576040805162461bcd60e51b815260206004820152601c60248201527b115490cdcc8c4e881d1bdad95b88185b1c9958591e481b5a5b9d195960221b604482015290519081900360640190fd5b61376660008383610834565b6001600160a01b03821660009081526001602052604090206137889082613ff2565b5061379560028284613ffe565b5060405181906001600160a01b038416906000906000805160206157db833981519152908290a45050565b6001600160a01b0382166000908152600a60205260409020546001600160501b0316806113175750600d805460016001600160501b03600160b01b8084048216838101909216026001600160b01b03909316929092179092556001600160a01b038085166000908152600a6020908152604080832080546001600160501b03191686179055848352600b825291829020865181549085166001600160a01b031991821617825591870151950180549287015162ffffff16600160a01b0262ffffff60a01b19969094169290911691909117939093161790915592915050565b6138aa84848461343a565b6138b6848484846141c9565b61263e5760405162461bcd60e51b81526004018080602001828103825260328152602001806155f66032913960400191505060405180910390fd5b60006138fd8383612f22565b9050336001600160a01b0382161461131757600080fd5b7f00000000000000000000000000000000000000000000000000000000000000006001600160a01b0316846001600160a01b03161480156139555750804710155b15613a77577f00000000000000000000000000000000000000000000000000000000000000006001600160a01b031663d0e30db0826040518263ffffffff1660e01b81526004016000604051808303818588803b1580156139b557600080fd5b505af11580156139c9573d6000803e3d6000fd5b50505050507f00000000000000000000000000000000000000000000000000000000000000006001600160a01b031663a9059cbb83836040518363ffffffff1660e01b815260040180836001600160a01b0316815260200182815260200192505050602060405180830381600087803b158015613a4557600080fd5b505af1158015613a59573d6000803e3d6000fd5b505050506040513d6020811015613a6f57600080fd5b5061263e9050565b6001600160a01b038316301415613a9857613a93848383613aa4565b61263e565b61263e84848484614331565b604080516001600160a01b038481166024830152604480830185905283518084039091018152606490920183526020820180516001600160e01b031663a9059cbb60e01b1781529251825160009485949389169392918291908083835b60208310613b205780518252601f199092019160209182019101613b01565b6001836020036101000a0380198251168184511680821785525050505050509050019150506000604051808303816000865af19150503d8060008114613b82576040519150601f19603f3d011682016040523d82523d6000602084013e613b87565b606091505b5091509150818015613bb5575080511580613bb55750808060200190516020811015613bb257600080fd5b50515b6127b1576040805162461bcd60e51b815260206004820152600260248201526114d560f21b604482015290519081900360640190fd5b60006113148383614481565b5490565b60008060008360020b12613c12578260020b613c1a565b8260020b6000035b9050620d89e8811115613c58576040805162461bcd60e51b81526020600482015260016024820152601560fa1b604482015290519081900360640190fd5b600060018216613c6c57600160801b613c7e565b6ffffcb933bd6fad37aa2d162d1a5940015b6001600160881b031690506002821615613ca8576ffff97272373d413259a46990580e213a0260801c5b6004821615613cc7576ffff2e50f5f656932ef12357cf3c7fdcc0260801c5b6008821615613ce6576fffe5caca7e10e4e61c3624eaa0941cd00260801c5b6010821615613d05576fffcb9843d60f6159c9db58835c9266440260801c5b6020821615613d24576fff973b41fa98c081472e6896dfb254c00260801c5b6040821615613d43576fff2ea16466c96a3843ec78b326b528610260801c5b6080821615613d62576ffe5dee046a99a2a811c461f1969c30530260801c5b610100821615613d82576ffcbe86c7900a88aedcffc83b479aa3a40260801c5b610200821615613da2576ff987a7253ac413176f2b074cf7815e540260801c5b610400821615613dc2576ff3392b0822b70005940c7a398e4b70f30260801c5b610800821615613de2576fe7159475a2c29b7443b29c7fa6e889d90260801c5b611000821615613e02576fd097f3bdfd2022b8845ad8f792aa58250260801c5b612000821615613e22576fa9f746462d870fdf8a65dc1f90e061e50260801c5b614000821615613e42576f70d869a156d2a1b890bb3df62baf32f70260801c5b618000821615613e62576f31be135f97d08fd981231505542fcfa60260801c5b62010000821615613e83576f09aa508b5b7a84e1c677de54f3e99bc90260801c5b62020000821615613ea3576e5d6af8dedb81196699c329225ee6040260801c5b62040000821615613ec2576d2216e584f5fa1ea926041bedfe980260801c5b62080000821615613edf576b048a170391f7dc42444e8fa20260801c5b60008460020b1315613efa578060001981613ef657fe5b0490505b600160201b810615613f0d576001613f10565b60005b60ff16602082901c0192505050919050565b6000836001600160a01b0316856001600160a01b03161115613f42579293925b846001600160a01b0316866001600160a01b031611613f6d57613f66858585614499565b9050613fdd565b836001600160a01b0316866001600160a01b03161015613fcf576000613f94878686614499565b90506000613fa38789866144fc565b9050806001600160801b0316826001600160801b031610613fc45780613fc6565b815b92505050613fdd565b613fda8585846144fc565b90505b95945050505050565b60006113148383614539565b600061131483836145ff565b6000610f7f84846001600160a01b038516614649565b815460009082106140565760405162461bcd60e51b81526004018080602001828103825260228152602001806155d46022913960400191505060405180910390fd5b82600001828154811061406557fe5b9060005260206000200154905092915050565b600061131483836146e0565b8154600090819083106140c85760405162461bcd60e51b81526004018080602001828103825260228152602001806157506022913960400191505060405180910390fd5b60008460000184815481106140d957fe5b906000526020600020906002020190508060000154816001015492509250509250929050565b6000828152600184016020526040812054828161419a5760405162461bcd60e51b81526004018080602001828103825283818151815260200191508051906020019080838360005b8381101561415f578181015183820152602001614147565b50505050905090810190601f16801561418c5780820380516001836020036101000a031916815260200191505b509250505060405180910390fd5b508460000160018203815481106141ad57fe5b9060005260206000209060020201600101549150509392505050565b60006141dd846001600160a01b031661369f565b6141e957506001610f7f565b60006142f7630a85bd0160e11b6141fe612e08565b88878760405160240180856001600160a01b03168152602001846001600160a01b0316815260200183815260200180602001828103825283818151815260200191508051906020019080838360005b8381101561426557818101518382015260200161424d565b50505050905090810190601f1680156142925780820380516001836020036101000a031916815260200191505b5095505050505050604051602081830303815290604052906001600160e01b0319166020820180516001600160e01b0383818316178352505050506040518060600160405280603281526020016155f6603291396001600160a01b03881691906147b4565b9050600081806020019051602081101561431057600080fd5b50516001600160e01b031916630a85bd0160e11b1492505050949350505050565b604080516001600160a01b0385811660248301528481166044830152606480830185905283518084039091018152608490920183526020820180516001600160e01b03166323b872dd60e01b178152925182516000948594938a169392918291908083835b602083106143b55780518252601f199092019160209182019101614396565b6001836020036101000a0380198251168184511680821785525050505050509050019150506000604051808303816000865af19150503d8060008114614417576040519150601f19603f3d011682016040523d82523d6000602084013e61441c565b606091505b509150915081801561444a57508051158061444a575080806020019051602081101561444757600080fd5b50515b61249f576040805162461bcd60e51b815260206004820152600360248201526229aa2360e91b604482015290519081900360640190fd5b60009081526001919091016020526040902054151590565b6000826001600160a01b0316846001600160a01b031611156144b9579192915b60006144dc856001600160a01b0316856001600160a01b0316600160601b613056565b9050613fdd6144f784838888036001600160a01b0316613056565b6147c3565b6000826001600160a01b0316846001600160a01b0316111561451c579192915b610f7f6144f783600160601b8787036001600160a01b0316613056565b600081815260018301602052604081205480156145f5578354600019808301919081019060009087908390811061456c57fe5b906000526020600020015490508087600001848154811061458957fe5b6000918252602080832090910192909255828152600189810190925260409020908401905586548790806145b957fe5b60019003818190600052602060002001600090559055866001016000878152602001908152602001600020600090556001945050505050611317565b6000915050611317565b600061460b8383614481565b61464157508154600181810184556000848152602080822090930184905584548482528286019093526040902091909155611317565b506000611317565b6000828152600184016020526040812054806146ae57505060408051808201825283815260208082018481528654600181810189556000898152848120955160029093029095019182559151908201558654868452818801909252929091205561304f565b828560000160018303815481106146c157fe5b906000526020600020906002020160010181905550600091505061304f565b600081815260018301602052604081205480156145f5578354600019808301919081019060009087908390811061471357fe5b906000526020600020906002020190508087600001848154811061473357fe5b60009182526020808320845460029093020191825560019384015491840191909155835482528983019052604090209084019055865487908061477257fe5b60008281526020808220600260001990940193840201828155600190810183905592909355888152898201909252604082209190915594506113179350505050565b6060610f7f84846000856147d9565b806001600160801b038116811461067557600080fd5b60608247101561481a5760405162461bcd60e51b81526004018080602001828103825260268152602001806156736026913960400191505060405180910390fd5b6148238561369f565b614874576040805162461bcd60e51b815260206004820152601d60248201527f416464726573733a2063616c6c20746f206e6f6e2d636f6e7472616374000000604482015290519081900360640190fd5b600080866001600160a01b031685876040518082805190602001908083835b602083106148b25780518252601f199092019160209182019101614893565b6001836020036101000a03801982511681845116808217855250505050505090500191505060006040518083038185875af1925050503d8060008114614914576040519150601f19603f3d011682016040523d82523d6000602084013e614919565b606091505b5091509150614929828286614934565b979650505050505050565b6060831561494357508161304f565b8251156149535782518084602001fd5b60405162461bcd60e51b815260206004820181815284516024840152845185939192839260440191908501908083836000831561415f578181015183820152602001614147565b50805460018160011615610100020316600290046000825580601f106149c057506149de565b601f0160209004906000526020600020908101906149de91906149e1565b50565b5b808211156149f657600081556001016149e2565b5090565b80356106758161557d565b805161ffff8116811461067557600080fd5b803562ffffff8116811461067557600080fd5b600060208284031215614a3b578081fd5b813561304f8161557d565b60008060408385031215614a58578081fd5b8235614a638161557d565b91506020830135614a738161557d565b809150509250929050565b60008060008060808587031215614a93578182fd5b8435614a9e8161557d565b93506020850135614aae8161557d565b9250614abc60408601614a17565b91506060850135614acc8161557d565b939692955090935050565b600080600060608486031215614aeb578081fd5b8335614af68161557d565b92506020840135614b068161557d565b929592945050506040919091013590565b60008060008060808587031215614b2c578182fd5b8435614b378161557d565b93506020850135614b478161557d565b92506040850135915060608501356001600160401b03811115614b68578182fd5b8501601f81018713614b78578182fd5b8035614b8b614b8682615530565b61550d565b818152886020838501011115614b9f578384fd5b81602084016020830137908101602001929092525092959194509250565b60008060408385031215614bcf578182fd5b8235614bda8161557d565b91506020830135614a7381615592565b60008060408385031215614bfc578182fd5b8235614c078161557d565b946020939093013593505050565b600080600060608486031215614c29578081fd5b8335614c348161557d565b9250602084013591506040840135614c4b8161557d565b809150509250925092565b60008060008060008060c08789031215614c6e578384fd5b8635614c798161557d565b955060208701359450604087013593506060870135614c97816155c4565b9598949750929560808101359460a0909101359350915050565b60008060208385031215614cc3578182fd5b82356001600160401b0380821115614cd9578384fd5b818501915085601f830112614cec578384fd5b813581811115614cfa578485fd5b8660208083028501011115614d0d578485fd5b60209290920196919550909350505050565b600060208284031215614d30578081fd5b81356001600160e01b03198116811461304f578182fd5b600060208284031215614d58578081fd5b813561304f816155a0565b600060208284031215614d74578081fd5b81516001600160401b03811115614d89578182fd5b8201601f81018413614d99578182fd5b8051614da7614b8682615530565b818152856020838501011115614dbb578384fd5b613fdd826020830160208601615551565b600060808284031215614ddd578081fd5b50919050565b600060a08284031215614ddd578081fd5b600060c08284031215614ddd578081fd5b60008183036080811215614e17578182fd5b604080519081016001600160401b038082118383101715614e3457fe5b816040526060841215614e45578485fd5b60a0830193508184108185111715614e5957fe5b508260405284359250614e6b8361557d565b918252602084013591614e7d8361557d565b826060830152614e8f60408601614a17565b60808301528152614ea2606085016149fa565b6020820152949350505050565b60006101608284031215614ddd578081fd5b600060208284031215614ed2578081fd5b813561304f816155af565b60008060408385031215614eef578182fd5b8251614efa816155af565b6020840151909250614a73816155af565b600080600080600060a08688031215614f22578283fd5b8551614f2d816155af565b8095505060208601519350604086015192506060860151614f4d816155af565b6080870151909250614f5e816155af565b809150509295509295909350565b600080600080600080600060e0888a031215614f86578485fd5b8751614f918161557d565b6020890151909750614fa2816155a0565b9550614fb060408901614a05565b9450614fbe60608901614a05565b9350614fcc60808901614a05565b925060a0880151614fdc816155c4565b60c0890151909250614fed81615592565b8091505092959891949750929550565b60006020828403121561500e578081fd5b61131482614a17565b600060208284031215615028578081fd5b5035919050565b60008060408385031215615041578182fd5b823591506020830135614a738161557d565b60008060408385031215615065578182fd5b505080516020909101519092909150565b6000806000806060858703121561508b578182fd5b843593506020850135925060408501356001600160401b03808211156150af578384fd5b818701915087601f8301126150c2578384fd5b8135818111156150d0578485fd5b8860208285010111156150e1578485fd5b95989497505060200194505050565b60008151808452615108816020860160208601615551565b601f01601f19169290920160200192915050565b60020b9052565b6001600160801b03169052565b6000828483379101908152919050565b6001600160a01b0391909116815260200190565b6001600160a01b0386168152600285810b602083015284900b60408201526001600160801b038316606082015260a060808201819052600090614929908301846150f0565b6001600160a01b03959095168552600293840b60208601529190920b60408401526001600160801b03918216606084015216608082015260a00190565b6001600160a01b039390931683526001600160801b03918216602084015216604082015260600190565b6000602080830181845280855180835260408601915060408482028701019250838701855b8281101561525357603f198886030184526152418583516150f0565b94509285019290850190600101615225565b5092979650505050505050565b901515815260200190565b90815260200190565b600293840b81529190920b60208201526001600160801b03909116604082015260600190565b60006020825261131460208301846150f0565b6020808252600c908201526b139bdd08185c1c1c9bdd995960a21b604082015260600190565b6020808252602c908201527f4552433732313a20617070726f76656420717565727920666f72206e6f6e657860408201526b34b9ba32b73a103a37b5b2b760a11b606082015260800190565b602080825260149082015273507269636520736c69707061676520636865636b60601b604082015260600190565b60208082526010908201526f125b9d985b1a59081d1bdad95b88125160821b604082015260600190565b6020808252600b908201526a139bdd0818db19585c995960aa1b604082015260600190565b815180516001600160a01b03908116835260208083015182168185015260409283015162ffffff1692840192909252920151909116606082015260800190565b6001600160801b039390931683526020830191909152604082015260600190565b9384526001600160801b039290921660208401526040830152606082015260800190565b918252602082015260400190565b6001600160601b038d1681526001600160a01b038c811660208301528b811660408301528a16606082015262ffffff89166080820152600288900b60a0820152610180810161548160c083018961511c565b61548e60e0830188615123565b85610100830152846101208301526154aa610140830185615123565b6154b8610160830184615123565b9d9c50505050505050505050505050565b6000808335601e198436030181126154df578283fd5b8301803591506001600160401b038211156154f8578283fd5b60200191503681900382131561365657600080fd5b6040518181016001600160401b038111828210171561552857fe5b604052919050565b60006001600160401b0382111561554357fe5b50601f01601f191660200190565b60005b8381101561556c578181015183820152602001615554565b8381111561263e5750506000910152565b6001600160a01b03811681146149de57600080fd5b80151581146149de57600080fd5b8060020b81146149de57600080fd5b6001600160801b03811681146149de57600080fd5b60ff811681146149de57600080fdfe456e756d657261626c655365743a20696e646578206f7574206f6620626f756e64734552433732313a207472616e7366657220746f206e6f6e20455243373231526563656976657220696d706c656d656e7465724552433732315065726d69743a20617070726f76616c20746f2063757272656e74206f776e65724552433732313a207472616e7366657220746f20746865207a65726f2061646472657373416464726573733a20696e73756666696369656e742062616c616e636520666f722063616c6c4552433732313a206f70657261746f7220717565727920666f72206e6f6e6578697374656e7420746f6b656e4552433732313a20617070726f76652063616c6c6572206973206e6f74206f776e6572206e6f7220617070726f76656420666f7220616c6c4552433732313a2062616c616e636520717565727920666f7220746865207a65726f20616464726573734552433732313a206f776e657220717565727920666f72206e6f6e6578697374656e7420746f6b656e456e756d657261626c654d61703a20696e646578206f7574206f6620626f756e64733067048beee31b25b2f1681f88dac838c8bba36af25bfb2b7cf7473a5847e35f4552433732313a207472616e73666572206f6620746f6b656e2074686174206973206e6f74206f776e49ecf333e5b8c95c40fdafc95c1ad136e8914a8fb55e9dc8bb01eaa83a2df9adddf252ad1be2c89b69c2b068fc378daa952ba7f163c4a11628f55a4df523b3ef4552433732313a20617070726f76616c20746f2063757272656e74206f776e65724552433732313a207472616e736665722063616c6c6572206973206e6f74206f776e6572206e6f7220617070726f766564a2646970667358221220bfd59e7fef16c59f6c65294aa4223c5f49330def51946fc8267e4b4eaf8bd9d364736f6c63430007060033",
  "linkReferences": {},
  "deployedLinkReferences": {}
}