{
  "_format": "hh-sol-artifact-1",
  "contractName": "VRFCoordinatorMock",
  "sourceName": "contracts/VRFCoordinatorMock.sol",
  "abi": [
    {
      "inputs": [
        {
          "internalType": "address",
          "name": "linkAddress",
          "type": "address"
        }
      ],
      "stateMutability": "nonpayable",
      "type": "constructor"
    },
    {
      "anonymous": false,
      "inputs": [
        {
          "indexed": true,
          "internalType": "address",
          "name": "sender",
          "type": "address"
        },
        {
          "indexed": true,
          "internalType": "bytes32",
          "name": "keyHash",
          "type": "bytes32"
        },
        {
          "indexed": true,
          "internalType": "uint256",
          "name": "seed",
          "type": "uint256"
        },
        {
          "indexed": false,
          "internalType": "uint256",
          "name": "fee",
          "type": "uint256"
        },
        {
          "indexed": false,
          "internalType": "bytes32",
          "name": "requestId",
          "type": "bytes32"
        }
      ],
      "name": "RandomnessRequest",
      "type": "event"
    },
    {
      "inputs": [],
      "name": "LINK",
      "outputs": [
        {
          "internalType": "contract LinkTokenInterface",
          "name": "",
          "type": "address"
        }
      ],
      "stateMutability": "view",
      "type": "function"
    },
    {
      "inputs": [
        {
          "internalType": "bytes32",
          "name": "requestId",
          "type": "bytes32"
        },
        {
          "internalType": "uint256",
          "name": "randomness",
          "type": "uint256"
        },
        {
          "internalType": "address",
          "name": "consumerContract",
          "type": "address"
        }
      ],
      "name": "callBackWithRandomness",
      "outputs": [],
      "stateMutability": "nonpayable",
      "type": "function"
    },
    {
      "inputs": [
        {
          "internalType": "uint256",
          "name": "randomness",
          "type": "uint256"
        }
      ],
      "name": "fulfillRequest",
      "outputs": [],
      "stateMutability": "nonpayable",
      "type": "function"
    },
    {
      "inputs": [],
      "name": "getStackLength",
      "outputs": [
        {
          "internalType": "uint256",
          "name": "",
          "type": "uint256"
        }
      ],
      "stateMutability": "view",
      "type": "function"
    },
    {
      "inputs": [
        {
          "internalType": "address",
          "name": "sender",
          "type": "address"
        },
        {
          "internalType": "uint256",
          "name": "fee",
          "type": "uint256"
        },
        {
          "internalType": "bytes",
          "name": "_data",
          "type": "bytes"
        }
      ],
      "name": "onTokenTransfer",
      "outputs": [],
      "stateMutability": "nonpayable",
      "type": "function"
    },
    {
      "inputs": [
        {
          "internalType": "uint256",
          "name": "_fee",
          "type": "uint256"
        },
        {
          "internalType": "bytes32",
          "name": "keyHash",
          "type": "bytes32"
        }
      ],
      "name": "registerProvingKey",
      "outputs": [],
      "stateMutability": "nonpayable",
      "type": "function"
    },
    {
      "inputs": [
        {
          "internalType": "bytes32",
          "name": "",
          "type": "bytes32"
        }
      ],
      "name": "serviceAgreements",
      "outputs": [
        {
          "internalType": "uint96",
          "name": "",
          "type": "uint96"
        }
      ],
      "stateMutability": "view",
      "type": "function"
    }
  ],
  "bytecode": "0x60806040523480156200001157600080fd5b50604051620013fb380380620013fb8339818101604052810190620000379190620000e8565b806000806101000a81548173ffffffffffffffffffffffffffffffffffffffff021916908373ffffffffffffffffffffffffffffffffffffffff160217905550506200011a565b600080fd5b600073ffffffffffffffffffffffffffffffffffffffff82169050919050565b6000620000b08262000083565b9050919050565b620000c281620000a3565b8114620000ce57600080fd5b50565b600081519050620000e281620000b7565b92915050565b6000602082840312156200010157620001006200007e565b5b60006200011184828501620000d1565b91505092915050565b6112d1806200012a6000396000f3fe608060405234801561001057600080fd5b506004361061007d5760003560e01c8063920e98e21161005b578063920e98e2146100ec5780639a91eb0d1461010a578063a4c0ed3614610126578063cf55fe97146101425761007d565b80631b6b6d231461008257806375d35070146100a057806390bfaba1146100d0575b600080fd5b61008a61015e565b604051610097919061091a565b60405180910390f35b6100ba60048036038101906100b5919061097f565b610182565b6040516100c791906109d3565b60405180910390f35b6100ea60048036038101906100e59190610a24565b6101ad565b005b6100f4610242565b6040516101019190610a73565b60405180910390f35b610124600480360381019061011f9190610a8e565b61025c565b005b610140600480360381019061013b9190610c3f565b610369565b005b61015c60048036038101906101579190610cae565b6106e9565b005b60008054906101000a900473ffffffffffffffffffffffffffffffffffffffff1681565b60036020528060005260406000206000915054906101000a90046bffffffffffffffffffffffff1681565b6b033b2e3c9fd0803ce80000008211156101fc576040517f08c379a00000000000000000000000000000000000000000000000000000000081526004016101f390610d84565b60405180910390fd5b816003600083815260200190815260200160002060006101000a8154816bffffffffffffffffffffffff02191690836bffffffffffffffffffffffff1602179055505050565b60006002546001805490506102579190610dd3565b905090565b600254600180549050116102a5576040517f08c379a000000000000000000000000000000000000000000000000000000000815260040161029c90610e53565b60405180910390fd5b60006001600254815481106102bd576102bc610e73565b5b9060005260206000209060020201604051806040016040529081600082015481526020016001820160009054906101000a900473ffffffffffffffffffffffffffffffffffffffff1673ffffffffffffffffffffffffffffffffffffffff1673ffffffffffffffffffffffffffffffffffffffff1681525050905061034b81600001518383602001516106e9565b60016002600082825461035e9190610ea2565b925050819055505050565b60008054906101000a900473ffffffffffffffffffffffffffffffffffffffff1673ffffffffffffffffffffffffffffffffffffffff163373ffffffffffffffffffffffffffffffffffffffff16146103f7576040517f08c379a00000000000000000000000000000000000000000000000000000000081526004016103ee90610f22565b60405180910390fd5b6000808280602001905181019061040e9190610f6c565b9150915060006003600084815260200190815260200160002060009054906101000a90046bffffffffffffffffffffffff166bffffffffffffffffffffffff160361048e576040517f08c379a000000000000000000000000000000000000000000000000000000000815260040161048590610ff8565b60405180910390fd5b6003600083815260200190815260200160002060009054906101000a90046bffffffffffffffffffffffff166bffffffffffffffffffffffff1684101561050a576040517f08c379a000000000000000000000000000000000000000000000000000000000815260040161050190611064565b60405180910390fd5b60006105678387600460008a73ffffffffffffffffffffffffffffffffffffffff1673ffffffffffffffffffffffffffffffffffffffff168152602001908152602001600020600087815260200190815260200160002054610827565b90506001600460008873ffffffffffffffffffffffffffffffffffffffff1673ffffffffffffffffffffffffffffffffffffffff168152602001908152602001600020600085815260200190815260200160002060008282546105ca9190610ea2565b9250508190555060006105dd8483610868565b9050600060405180604001604052808381526020018973ffffffffffffffffffffffffffffffffffffffff16815250905060018190806001815401808255809150506001900390600052602060002090600202016000909190919091506000820151816000015560208201518160010160006101000a81548173ffffffffffffffffffffffffffffffffffffffff021916908373ffffffffffffffffffffffffffffffffffffffff160217905550505083858973ffffffffffffffffffffffffffffffffffffffff167f42fbf6a38bf795237cd5685315a827e12a45212553f93fdccfc37a2b711ac0408a866040516106d7929190611093565b60405180910390a45050505050505050565b6000806394985ddd60e01b85856040516024016107079291906110bc565b604051602081830303815290604052907bffffffffffffffffffffffffffffffffffffffffffffffffffffffff19166020820180517bffffffffffffffffffffffffffffffffffffffffffffffffffffffff838183161783525050505090506000620324b09050805a10156107b1576040517f08c379a00000000000000000000000000000000000000000000000000000000081526004016107a890611131565b60405180910390fd5b60008473ffffffffffffffffffffffffffffffffffffffff16836040516107d891906111c2565b6000604051808303816000865af19150503d8060008114610815576040519150601f19603f3d011682016040523d82523d6000602084013e61081a565b606091505b5050905050505050505050565b600080600090508481858560405160200161084594939291906111e8565b6040516020818303038152906040528051906020012060001c9150509392505050565b6000828260405160200161087d92919061126f565b60405160208183030381529060405280519060200120905092915050565b600073ffffffffffffffffffffffffffffffffffffffff82169050919050565b6000819050919050565b60006108e06108db6108d68461089b565b6108bb565b61089b565b9050919050565b60006108f2826108c5565b9050919050565b6000610904826108e7565b9050919050565b610914816108f9565b82525050565b600060208201905061092f600083018461090b565b92915050565b6000604051905090565b600080fd5b600080fd5b6000819050919050565b61095c81610949565b811461096757600080fd5b50565b60008135905061097981610953565b92915050565b6000602082840312156109955761099461093f565b5b60006109a38482850161096a565b91505092915050565b60006bffffffffffffffffffffffff82169050919050565b6109cd816109ac565b82525050565b60006020820190506109e860008301846109c4565b92915050565b6000819050919050565b610a01816109ee565b8114610a0c57600080fd5b50565b600081359050610a1e816109f8565b92915050565b60008060408385031215610a3b57610a3a61093f565b5b6000610a4985828601610a0f565b9250506020610a5a8582860161096a565b9150509250929050565b610a6d816109ee565b82525050565b6000602082019050610a886000830184610a64565b92915050565b600060208284031215610aa457610aa361093f565b5b6000610ab284828501610a0f565b91505092915050565b6000610ac68261089b565b9050919050565b610ad681610abb565b8114610ae157600080fd5b50565b600081359050610af381610acd565b92915050565b600080fd5b600080fd5b6000601f19601f8301169050919050565b7f4e487b7100000000000000000000000000000000000000000000000000000000600052604160045260246000fd5b610b4c82610b03565b810181811067ffffffffffffffff82111715610b6b57610b6a610b14565b5b80604052505050565b6000610b7e610935565b9050610b8a8282610b43565b919050565b600067ffffffffffffffff821115610baa57610ba9610b14565b5b610bb382610b03565b9050602081019050919050565b82818337600083830152505050565b6000610be2610bdd84610b8f565b610b74565b905082815260208101848484011115610bfe57610bfd610afe565b5b610c09848285610bc0565b509392505050565b600082601f830112610c2657610c25610af9565b5b8135610c36848260208601610bcf565b91505092915050565b600080600060608486031215610c5857610c5761093f565b5b6000610c6686828701610ae4565b9350506020610c7786828701610a0f565b925050604084013567ffffffffffffffff811115610c9857610c97610944565b5b610ca486828701610c11565b9150509250925092565b600080600060608486031215610cc757610cc661093f565b5b6000610cd58682870161096a565b9350506020610ce686828701610a0f565b9250506040610cf786828701610ae4565b9150509250925092565b600082825260208201905092915050565b7f796f752063616e277420636861726765206d6f7265207468616e20616c6c207460008201527f6865204c494e4b20696e2074686520776f726c642c2067726565647900000000602082015250565b6000610d6e603c83610d01565b9150610d7982610d12565b604082019050919050565b60006020820190508181036000830152610d9d81610d61565b9050919050565b7f4e487b7100000000000000000000000000000000000000000000000000000000600052601160045260246000fd5b6000610dde826109ee565b9150610de9836109ee565b9250828203905081811115610e0157610e00610da4565b5b92915050565b7f5265717565737420737461636b20697320656d70747900000000000000000000600082015250565b6000610e3d601683610d01565b9150610e4882610e07565b602082019050919050565b60006020820190508181036000830152610e6c81610e30565b9050919050565b7f4e487b7100000000000000000000000000000000000000000000000000000000600052603260045260246000fd5b6000610ead826109ee565b9150610eb8836109ee565b9250828201905080821115610ed057610ecf610da4565b5b92915050565b7f4d75737420757365204c494e4b20746f6b656e00000000000000000000000000600082015250565b6000610f0c601383610d01565b9150610f1782610ed6565b602082019050919050565b60006020820190508181036000830152610f3b81610eff565b9050919050565b600081519050610f5181610953565b92915050565b600081519050610f66816109f8565b92915050565b60008060408385031215610f8357610f8261093f565b5b6000610f9185828601610f42565b9250506020610fa285828601610f57565b9150509250929050565b7f54686973206b65794861736820697320756e7265676973746572656400000000600082015250565b6000610fe2601c83610d01565b9150610fed82610fac565b602082019050919050565b6000602082019050818103600083015261101181610fd5565b9050919050565b7f42656c6f7720616772656564207061796d656e74000000000000000000000000600082015250565b600061104e601483610d01565b915061105982611018565b602082019050919050565b6000602082019050818103600083015261107d81611041565b9050919050565b61108d81610949565b82525050565b60006040820190506110a86000830185610a64565b6110b56020830184611084565b9392505050565b60006040820190506110d16000830185611084565b6110de6020830184610a64565b9392505050565b7f6e6f7420656e6f7567682067617320666f7220636f6e73756d65720000000000600082015250565b600061111b601b83610d01565b9150611126826110e5565b602082019050919050565b6000602082019050818103600083015261114a8161110e565b9050919050565b600081519050919050565b600081905092915050565b60005b8381101561118557808201518184015260208101905061116a565b60008484015250505050565b600061119c82611151565b6111a6818561115c565b93506111b6818560208601611167565b80840191505092915050565b60006111ce8284611191565b915081905092915050565b6111e281610abb565b82525050565b60006080820190506111fd6000830187611084565b61120a6020830186610a64565b61121760408301856111d9565b6112246060830184610a64565b95945050505050565b6000819050919050565b61124861124382610949565b61122d565b82525050565b6000819050919050565b611269611264826109ee565b61124e565b82525050565b600061127b8285611237565b60208201915061128b8284611258565b602082019150819050939250505056fea26469706673582212207577e0576ffb6169763eca90734a80facb41f3f0c2b9648edf358ef293ee616664736f6c63430008110033",
  "linkReferences": {},
  "deployedLinkReferences": {}
}